S22400600018FBC238A900045BA24000A9B1041B4BABA90A0085006402A9B2048504A9536F24
S22400602085064CCE6D436F6C6404000080D25053502D5265736574092C60A240004CA16684
S22400604030013A60CACA74264CA166447570034460B526CACA95264CA16644726F700451B8
S22400606060E8E84CA16653776170046160B526B428942695284CA1664F766572046D60B595
S2240060802880D0526F74037F60B42AB528952AB526952894264CA1664E6970038960B5265F
S2240060A0E8E895264CA1665475636B049E60B526B42894269528809B3244726F7005AE6041
S2240060C0E8E8809DE8E880F83244757004C060B528B426CACACACA952894264CA166324FDD
S2240060E076657205CF60B52CB42A80E7325377617005E660B526B42A952A9426B528B42CED
S224006100952C94284CA166446570746805F4608668A9400038E5684A4C53605069636B042C
S2240061200F61B5260ADA6301AAB528FA95264CA1663E52022261B526E8E8484CA166323E6D
S22400614052033661B52848B526484CC060523E024461684C536032523E0352617A684CD383
S224006160605240025C61A3014C53602B01666118B52875264CA0602D016F6138B528F526C9
S2240061804CA0604E6567617465067B61B52649FFFF1A95264CA166416273038C61B526301D
S2240061A0ED4CA166444E6567617465079D6138A90000F5289528A90000F52695264CA16670
S2240061C04441627304AE61B52630E34CA1664D617803C761B52638F52870183004B526955F
S2240061E028E8E84CA1664D696E03D461B52638F52870E830E880EA312B02EC61F6264CA135
S22400620066322B02FC61F62680F2312D020662D6264CA166322A020F6216264CA166322FF3
S224006220021962B5260A76264CA16655322F03236256264CA1664C5368696674063162B464
S22400624026F005162888D0FB4C6160525368696674063F62B426F005562888D0FB4C6160DC
S224006260533E44035462B526290080F003A9FFFF4C5360554D2A036662A9000018A0100066
S224006280762890031875266A88D0F5762895264CA1664D2A02796220BD66AE629D616D6040
S2240062A09D6179625261F966AC62AE61CD66B5265528290080484CA1662A01976220BD669B
S2240062C079626160CD66554E2F4D6F6406BD62A90000162A3628A020002AB004D526900360
S2240062E0F52638362A362888D0EF95264CA166554D2F4D4F4406CF6220BD66CF629E606D6C
S22400630060CD66534D2F52656D06F86220BD66366151603661C7613E639D61F8622163CDFE
S22400632066A30343011008A9000038F5269526681008A9000038F5289528684CA166A3039D
S2240063404C53602F4D4F44040C6320BD663661666252610C63CD662F014A6320BD664A63F3
S2240063609E60CD664D6F64035B6320BD664A636160CD66303D026A63B526D011A9FFFF95EE
S224006380264CA166303C027863B52630EF74264CA166303E028963B52630F2D0DF80EE3D9C
S2240063A0019763B526D528F00FE8E880E03C3E02A363B526D528F0F1E8E880C03C01B26339
S2240063C038B528F526700F30EF80DE3E01C06338B528F52670F130D1D0DE80CD553C02CF3B
S2240063E063B528D52690D180C0553E02E163B526D52890C480B35472756504EE63A9FFFFE8
S2240064004C536046616C736505FD63A900004C5360416E64030B64B52635284CA0604F72B6
S224006420021764B52615284CA060586F72032364B52655284CA060496E76657274063064FD
S224006440B52649FFFF95264CA16640014064A12695264CA16621014E64B52881264CC06089
S2240064604340025964E220A126C22029FF0095264CA1664321026564B528E2208126C2205D
S2240064804CC0603240027864B426B902009526B900004C53603221028864B426B5289900A2
S2240064A000B52A9902004CC460434D6F7665059A64B526F00C3ADAB42A5AB428FA540000C3
S2240064C0FA4CC46046696C6C04B164B428F016B526E220812AC220983AF00A3ADAB42ABBE8
S2240064E0C8540000FA4CC460586F6E586F666607CB64A904000C43004CA1664B657903F2A6
S224006500642007654C5360080BA900005BE2242233E0002BB0052829FF00602880E94B6564
S224006520793F040165203065F003A9FFFF4C5360AD430029010060456D6974042565B52674
S224006540E8E82048654CA16648DA08782263E000B00428FA686028FA80EF4352023E6520B6
S22400656065654CA166A90D00204865A90A0080D85370616365055F65207E654CA166A92097
S2240065800080C5537061636573067865D6263005207E6580F74C616054797065048C6580A0
S2240065A007A128204865F628D62610F54CC060416363657074069F65B52848742820076507
S2240065C0C90D00F038C90800F01CC97F00F017B426846AB428C46AB0E4E2209301C220F6B8
S2240065E02820486580D7B428F0D3D628A90800204865207E65A9080020486580C0E8E86836
S2240066004CA1662E48657804B865B5272021668008432E486578050A66B5262021664C6169
S22400662060484A4A4A4A202A6668290F00C90A0090036906006930004C4865552E021966CA
S224006640B526E8E8205066A920002048654CA1668568F40000A900000668A010002AC50034
S2240066609002E500266888D0F4C90A00900369060069300048A568D0DC800320486568D0CD
S224006680FA602E014066B526100CA92D00204865B52649FFFF1AE8E8205066207E654CA15A
S2240066A066A414B90000C8C884143A486045786563757465078666B526E8E880ED7AC8D400
S2240066C01484144CA1664578697404B7667A84144CA1664272616E636806CD66B2148514B0
S2240066E04CA166496682DC6620BD66AC68F9665168366836685168CD66E8E8B524F0DDE6DC
S22400670014E6144CA166456C736584E86620BD66AC68DC6651683668366851686D60DC6662
S2240067202C675468656E840D6720BD6636686D605964CD66426567696E85296720BD663629
S22400674068CD66416761696E853C6720BD668868CD66556E74696C854B6720BD66AC68F998
S2240067606651685168CD665768696C65855A6720BD66AC68F9665168366836685168CD6633
S224006780526570656174866F6720BD666D60886836686D605964CD66446F82896720BD6674
S2240067A0AC68AA6751683668CD66B52848B526484CC0604C6F6F70849D6720BD66AC68C731
S2240067C06751685168CD66681AC301F004484CDC6668E614E6144CA1662B4C6F6F7085BAE5
S2240067E06720BD66AC68EE6751685168CD66B526E8E88568186301830138E303C5686A454A
S2240068006810034CDC666868E614E6144CA166556E6C6F6F7006E16768684CA16649011803
S22400682068A3014C53604A012168A3054C536048657265042A68A5044C5360416C6C6F740F
S224006840053668B52618650485044C61602C014368B5262059684C61609204E604E604A9EA
S2240068600000920460432C025168B5262072684C6160920480E7436F6D70696C652C086AAD
S2240068806820BD665168CD6620BD66AC68DC6651685168CD664C69746572616C87816820C1
S2240068A0BD66AC68AC6881685168CD66B214E614E6144C536020BD665160516836686D60E2
S2240068C051604368B164CD664865616465722C079F68B4285AA12AF62A2072687A88D0F4AB
S2240068E0B528207268A506205968A5048506A92000207268B5262059684CC460496D6D6585
S224006900646961746589D268A98000A406888888190000990000604E616D653E53747269CA
S2240069206E670B0869B426888888B90000291F00489838E3019526684C5360576F72647361
S22400694005256920BD66AF6B4E645160F96664697865516025699F65AC68FEFF6F614E6400
S224006960DC664A6961605F65CD665365617263682D576F72644C6973740F4369A97F00388F
S224006980F528856EB52A18E56E8570E220B528EBA07F00B170C220856CB5268007C230A4CE
S2240069A06AB98100F04A38E98300A8B97F00456C29DF5FD0EC846AE230A46EC83017B16A60
S2240069C05170F0F729DFD0D5B16A29DF38E941C91A90E880C8C230A07F00B16A09FF7F3052
S2240069E003A901009528A56A18698300952A8004742AE8E84C616027017C6920BD660A6D90
S224006A00AF6B4E647C69F9660C6ACD66B76D436F6E7374616E7408FB6920BD660A6DAC6810
S224006A20286AD2685168CD667AB901004C53605661726961626C6508196A20BD664E6A4476
S224006A40605168CD66437265617465063A6A20BD660A6DAC685B6AD268CD66681A4C536066
S224006A60446F65733E854E6A20BD66AC687F6A8168AC6820006A68AC68896A5168CD66A544
S224006A8014A4069901004CCD667A68D414C884141A4C53602E2282686A20BD66AC682200BA
S224006AA0C76CC86B4E64F966B46AAC68B86A8168B568CD669F65CD6620BD66C16A9F65CD57
S224006AC066A301A8B90000C8C8CACA9426CACA952618752883014CA166532282996A20BDB6
S224006AE066AC682200C76CC86B4E64F966F96AAC68116B8168B568CD665160366136683636
S224006B006136686D6051604368B16452615261CD66A414B90000C8C8CACA9426CACA9526FC
S224006B2018752885144CA1664D7573744265436F6D70696C696E670FDE6A20BD66C86B4EA2
S224006B40647863F966496BB76DCD6641626F727422863A6B20BD66AC682200C76C3A6BAC45
S224006B6068696B8168B568CD66B526D00EE8E8A5141872141A1A85144CA166A414B900002A
S224006B80C8C8CACA9426CACA952620BD669F65B76D557365723005546B7B4C53607A7B183E
S224006BA07901004C53604C617465737406996B209D6B06004261736504AF6B209D6B0000F1
S224006BC0537461746505BB6B209D6B02003E496E03C86B209D6B0C00486F6C645074720737
S224006BE0D36B209D6B0E0050617273654C656E08E26B209D6B0A00209D6B080052616E64C6
S224006C00537461746509F26B209D6B100054656D703005086C209D6B6A00536F757263658E
S224006C2006156CA508CACA9526A50A4C5360446563696D616C07236CA90A0085004CA1664E
S224006C4048657803386CA9100080F0436F756E7405466CA12629FF00F6264C5360436F6D51
S224006C607061726507536CB528856AB52C856CB52AD5269002B526856EE220A0FFFFC8C49D
S224006C806EB00AB16CD16AF0F52A0A800BC220B526D52AD0F4A90100C2202903003A952C98
S224006CA04CC4602881676C20BD66AC682900C76CC060CD665C81A76CA50A850C4CA166500A
S224006CC06172736505B86CCACAE220A40C5A88B528C8C40AB014D108F00AC920D0F3B10844
S224006CE0C920B0EBC8840C888002840CC2209838E30195266818650895284CA166506172A8
S224006D0073652D4E616D650AC76C20BD66196DAC682000C76C196DCD66E220A40C88C8C4FC
S224006D200AB006B108C92190F5840CC2204CA1664E756D626572060A6D6468646A209A6DFA
S224006D403052C92B00F007C92D00D007C66A209A6D302D38E93000903BC90A00900BE907C6
S224006D600029DF00C90A00902BC500B027856CA400A9000018656888D0FA656C856880CE5B
S224006D80A568246A100449FFFF1A9528A9FFFF95264CA1667428E8E880F7D6263007A1288D
S224006DA0F62829FF006042796503396D4C84E041626F727405AC6D20BD663A60B86A050095
S224006DC03F00200D0ACE6D5175697404B76D20BD660E6E4460C86B5964AC6802035160F71E
S224006DE06B5964AC68FE00B865F26B596478654460D36B5964216EC86B4E647863F96608EB
S224006E006EB86A0300206F6B5F65DC66D96DA9B1041B4CA166496E7465727072657409CE34
S224006E206D20BD660A6D5160F966976ECF60AF6B4E647C695160F9665C6E9763F966506E40
S224006E40C86B4E64F966506E8168C060DC66246E9E609E609B6EB766DC66246E6160CF6068
S224006E60396D5160F966826E6160C86B4E64F9667A6E9F68C060DC66246E9E609E60DC6641
S224006E80246E61609F65B86A0B00206E6F7420666F756E6420B76DC060CD66E04100B00351
S224006EA04CA16620BD669F65B76D5B81216E64024CA1665D01AE6E86024CA166436F64651B
S224006EC004B76E20BD66F16E3668AF6B4E645964AE6ECD663B436F646585C36E20BD66AC11
S224006EE0684C006A68AC68A1665168CD663A01DC6E20BD660A6DAC68BD66D268B76ECD66F8
S224006F003B81F16E20BD66AC68CD668168AE6ECD6644756D7004046F20BD660F625F657F8B
S224006F20600A66AC6810007865456F19660F6251607863F966276F616051608963F9661D7C
S224006F406FC060CD66A12AF62AD6284C53602E5302186F20BD66AC683C003E650F618666E6
S224006F60AC683E003E6578656E6F5F65CD66A94000856AE46AB0143A3A48DAAAB526FA2047
S224006F805066A920002048656880E64CA166DBDBDBDBDBDBDBDBDBDBDBDBDBDBDBDBDBDB19
S22400FFE0DBDBDBDBDBDBDBDBDBDBDBDBDBDBDBDBDBDBDBDBDBDBDBDBDBDBDBDB0060DBDBF2
S804000000FB