S22400600018FBC238A900045BA9AF041BA240004BABA90A0085006402A9B0048504A95A6F21
S22400602085064CD56D436F6C6404000080D25053502D5265736574092C60A240004CA1667D
S22400604030013A60CACA74304CA166447570034460B530CACA95304CA16644726F7004519A
S22400606060E8E84CA16653776170046160B530B432943095324CA1664F766572046D60B56D
S2240060803280D0526F74037F60B434B5329534B530953294304CA1664E6970038960B5300F
S2240060A0E8E895304CA1665475636B049E60B530B43294309532809B3244726F7005AE600F
S2240060C0E8E8809DE8E880F83244757004C060B430B532CACACACA953294304CA166324FB5
S2240060E076657205CF60B536B43480E7325377617005E660B530B43495349430B532B4369D
S224006100953694324CA166446570746805F4608626A9400038E5264A4C53605069636B049C
S2240061200F61B5300ADA6301AAB532FA95304CA1663E52022261B530E8E8484CA166323E45
S22400614052033661B53248B530484CC060523E024461684C536032523E0352617A684CD36F
S224006160605240025C61A3014C53602B01666118B53275304CA0602D016F6138B532F530A1
S2240061804CA0604E6567617465067B61B53049FFFF1A95304CA166416273038C61B53030FF
S2240061A0ED4CA166444E6567617465079D6138A90000F5329532A90000F53095304CA16648
S2240061C04441627304AE61B53030E34CA1664D617803C761B53038F53270183004B5309537
S2240061E032E8E84CA1664D696E03D461B53038F53270E830E880EA312B02EC61F6304CA10D
S22400620066322B02FC61F63080F2312D020662D6304CA166322A020F6216304CA166322FD5
S224006220021962B5300A76304CA16655322F03236256304CA1664C5368696674063162B446
S22400624030F005163288D0FB4C6160525368696674063F62B430F005563288D0FB4C6160B4
S224006260533E44035462B530290080F003A9FFFF4C5360554D2A036662A9000018A010005C
S224006280763290031875306A88D0F5763295304CA1664D2A02796220BD66AE629D616D6018
S2240062A09D6179625261F966AC62AE61CD66B5305532290080484CA1662A01976220BD6687
S2240062C079626160CD66554E2F4D6F6406BD62A9000016343632A020002AB004D530900342
S2240062E0F530383634363288D0EF95304CA166554D2F4D6F6406CF6220BD66CF629E606D04
S22400630060CD66534D2F52656D06F86220BD66366151603661C7613E639D61F8622163CDFE
S22400632066A30343011008A9000038F5309530681008A9000038F5329532684CA166A30375
S2240063404C53602F4D6F64040C6320BD663661666252610C63CD662F014A6320BD664A63B3
S2240063609E60CD664D6F64035B6320BD664A636160CD66303D026A63B530D011A9FFFF95E4
S224006380304CA166303C027863B53030EF74304CA166303E028963B53030F2D0DF80EE3D74
S2240063A0019763B530D532F00FE8E880E03C3E02A363B530D532F0F1E8E880C03C01B26311
S2240063C038B532F530700F30EF80DE3E01C06338B532F53070F130D1D0DE80CD553C02CF13
S2240063E063B532D53090D180C0553E02E163B530D53290C480B35472756504EE63A9FFFFC0
S2240064004C536046616C736505FD63A900004C5360416E64030B64B53235304CA0604F72A2
S224006420021764B53215304CA060586F72032364B53255304CA060496E76657274063064D5
S224006440B53049FFFF95304CA16640014064A13095304CA16621014E64B53281304CC0604D
S2240064604340025964E220A130C22029FF0095304CA1664321026564B532E2208130C22035
S2240064804CC0603240027864B430B902009530B900004C53603221028864B430B53299007A
S2240064A000B5349902004CC460434D6F7665059A64B530F00C3ADAB4345AB432FA5400009B
S2240064C0FA4CC46046696C6C04B164B432F016B530E2208134C220983AF00A3ADAB434BBC0
S2240064E0C8540000FA4CC460586F6E586F666607CB64A904000C43004CA1664B657903F2A6
S224006500642007654C5360080BA900005BE2242233E0002BB0052829FF00602880E94B6564
S224006520793F040165203065F003A9FFFF4C5360AD430029010060456D6974042565B5306A
S224006540E8E82048654CA16648DA08782263E000B00428FA686028FA80EF4352023E6520B6
S22400656065654CA166A90D00204865A90A0080D85370616365055F65207E654CA166A92097
S2240065800080C5537061636573067865D6303005207E6580F74C616054797065048C658096
S2240065A007A132204865F632D63010F54CC060416363657074069F65B532487432200765D5
S2240065C0C90D00F038C90800F01CC97F00F017B4308428B432C428B0E4E2209301C220F628
S2240065E03220486580D7B432F0D3D632A90800204865207E65A9080020486580C0E8E86818
S2240066004CA1662E48657804B865B5312021668008432E486578050A66B5302021664C6155
S22400662060484A4A4A4A202A6668290F00C90A0090036906006930004C4865552E021966CA
S224006640B530E8E8205066A920002048654CA1668526F40000A900000626A010002AC500AE
S2240066609002E500262688D0F4C90A00900369060069300048A526D0DC800320486568D051
S224006680FA602E014066B530100CA92D00204865B53049FFFF1AE8E8205066207E654CA146
S2240066A066A414B90000C8C884143A486045786563757465078666B530E8E880ED7AC8D4F6
S2240066C01484144CA1664578697404B7667A84144CA1664272616E636806CD66B2148514B0
S2240066E04CA166496682DC6620BD66B368F9665168366836685168CD66E8E8B52EF0DDE6CB
S22400670014E6144CA166456C736584E86620BD66B368DC6651683668366851686D60DC665B
S2240067202C675468656E840D6720BD6636686D605964CD66426567696E85296720BD663629
S22400674068CD66416761696E853C6720BD668F68CD66556E74696C854B6720BD66B368F98A
S2240067606651685168CD665768696C65855A6720BD66B368F9665168366836685168CD662C
S224006780526570656174866F6720BD666D608F6836686D605964CD66446F82896720BD666D
S2240067A0B368AA6751683668CD66B53248B530484CC0604C6F6F70849D6720BD66B368C70F
S2240067C06751685168CD66681AC301F004484CDC6668E614E6144CA1662B4C6F6F7085BAE5
S2240067E06720BD66B368EE6751685168CD66B530E8E88526186301830138E303C5266A45BD
S2240068002610034CDC666868E614E6144CA166556E6C6F6F7006E16768684CA16649011845
S22400682068A3014C53604A012168A3054C536048657265042A68A5044C5360416C6C6F740F
S224006840053668B53018650485044C61602C014368B5302059684C61609204E604E604A9D6
S2240068600000920460432C025168B5302072684C6160920480E7436F6D70696C652C086AA3
S2240068806820BD665168CD664A6D702C04816820BD66B368DC6651685168CD664C69746549
S2240068A072616C878F6820BD66B368B36881685168CD66B214E614E6144C536020BD66517B
S2240068C060516836686D6051604368B164CD664865616465722C07A668B4325AA134F634C2
S2240068E02072687A88D0F4B532207268A506205968A5048506A92000207268B530205968A9
S2240069004CC460496D6D65646961746589D968A98000A406888888190000990000604E617D
S2240069206D653E537472696E670B0F69B430888888B90000291F00489838E3019530684C56
S2240069405360576F726473052C6920BD66B66B4E645160F9666B69786551602C699F65B302
S22400696068FEFF6F614E64DC66516961605F65CD665365617263682D576F72644C697374BC
S2240069800F4A69A97F0038F532852CB53418E52C852EE220B532EBA07F00B12EC220852AD0
S2240069A0B5308007C230A428B98100F04A38E98300A8B97F00452A29DF5FD0EC8428E23060
S2240069C0A42CC83017B128512EF0F729DFD0D5B12829DF38E941C91A90E880C8C230A07FF0
S2240069E000B12809FF7F3003A901009532A52818698300953480047434E8E84C61602701C3
S224006A00836920BD66116DB66B4E648369F966136ACD66BE6D436F6E7374616E7408026A0D
S224006A2020BD66116DB3682F6AD9685168CD667AB901004C53605661726961626C6508202E
S224006A406A20BD66556A44605168CD6643726561746506416A20BD66116DB368626AD96847
S224006A60CD66681A4C5360446F65733E85556A20BD66B368866A8168B36820006A68B368F1
S224006A80906A5168CD66A514A4069901004CCD667A68D414C884141A4C53602E22826F6AA1
S224006AA020BD66B3682200CE6CCF6B4E64F966BB6AB368BF6A8168BC68CD669F65CD6620CC
S224006AC0BD66C86A9F65CD66A301A8B90000C8C8CACA9430CACA953018753283014CA16649
S224006AE0532282A06A20BD66B3682200CE6CCF6B4E64F966006BB368186B8168BC68CD6642
S224006B00516036613668366136686D6051604368B16452615261CD66A414B90000C8C8CAB3
S224006B20CA9430CACA953018753285144CA1664D7573744265436F6D70696C696E670FE5D8
S224006B406A20BD66CF6B4E647863F966506BBE6DCD6641626F72742286416B20BD66B3689A
S224006B602200CE6C416BB368706B8168BC68CD66B530D00EE8E8A5141872141A1A85144CCF
S224006B80A166A414B90000C8C8CACA9430CACA953020BD669F65BE6D5573657230055B6B2B
S224006BA07B4C53607A7B187901004C53604C617465737406A06B20A46B060042617365049E
S224006BC0B66B20A46B0000537461746505C26B20A46B02003E496E03CF6B20A46B0C004847
S224006BE06F6C6450747207DA6B20A46B0E0050617273654C656E08E96B20A46B0A0020A41F
S224006C006B080052616E64537461746509F96B20A46B100054656D7030050F6C20A46B282D
S224006C2000536F75726365061C6CA508CACA9530A50A4C5360446563696D616C072A6CA9A7
S224006C400A0085004CA166486578033F6CA9100080F0436F756E74054D6CA13029FF00F69B
S224006C60304C5360436F6D70617265075A6CB5328528B536852AB534D5309002B530852C08
S224006C80E220A0FFFFC8C42CB00AB12AD128F0F52A0A800BC220B530D534D0F4A90100C265
S224006CA0202903003A95364CC46028816E6C20BD66B3682900CE6CC060CD665C81AE6CA5DB
S224006CC00A850C4CA166506172736505BF6CCACAE220A40C5A88B532C8C40AB014D108F064
S224006CE00AC920D0F3B108C920B0EBC8840C888002840CC2209838E30195306818650895CD
S224006D00324CA16650617273652D4E616D650ACE6C20BD66206DB3682000CE6C206DCD66F7
S224006D20E220A40C88C8C40AB006B108C92190F5840CC2204CA1664E756D62657206116DEE
S224006D406426642820A16D3052C92B00F007C92D00D007C62820A16D302D38E93000903B1B
S224006D60C90A00900BE9070029DF00C90A00902BC500B027852AA400A9000018652688D087
S224006D80FA652A852680CEA5262428100449FFFF1A9532A9FFFF95304CA1667432E8E88064
S224006DA0F7D6303007A132F63229FF006042796503406D4C84E041626F727405B36D20BD9D
S224006DC0663A60BF6A05003F00200D0AD56D5175697404BE6D20BD66156E4460CF6B596495
S224006DE0B36800035160FE6B5964B368FE00B865F96B596478654460DA6B5964286ECF6BEF
S224006E004E647863F9660F6EBF6A0300206F6B5F65DC66E06DA9AF041B4CA166496E746531
S224006E20727072657409D56D20BD66116D5160F9669E6ECF60B66B4E6483695160F9666397
S224006E406E9763F966576ECF6B4E64F966576E8168C060DC662B6E9E609E60A26EB766DCA8
S224006E60662B6E6160CF60406D5160F966896E6160CF6B4E64F966816EA668C060DC662BD4
S224006E806E9E609E60DC662B6E61609F65BF6A0B00206E6F7420666F756E6420BE6DC06097
S224006EA0CD66E04100B0034CA16620BD669F65BE6D5B81286E64024CA1665D01B56E8602CD
S224006EC04CA166436F646504BE6E20BD66F86E3668B66B4E645964B56ECD663B436F6465CC
S224006EE085CA6E20BD66B3684C006A68B368A1665168CD663A01E36E20BD66116DB368BD21
S224006F0066D968BE6ECD663B81F86E20BD66B368CD668168B56ECD6644756D70040B6F2040
S224006F20BD660F625F657F600A66B368100078654C6F19660F6251607863F9662E6F6160A9
S224006F4051608963F966246FC060CD66A134F634D6324C53602E53021F6F20BD66B3683C99
S224006F60003E650F618666B3683E003E657865756F5F65CD66A940008528E428B0143A3A7F
S224006F8048DAAAB530FA205066A920002048656880E64CA166DBDBDBDBDBDBDBDBDBDBDB4B
S22400FFE0DBDBDBDBDBDBDBDBDBDBDBDBDBDBDBDBDBDBDBDBDBDBDBDBDBDBDBDB0060DBDBF2
S804000000FB