S22400600018FBC238A900045BA9BF041BA240004BAB20C8636402A9C0048504A9567785065F
S2240060208034436F6C6404000080D54279650329604C84E041626F7274053160202476A97F
S2240060404A60A0050020A06E800C3F00200D0A51756974043C60A9BF041B6402208560E89F
S224006060E8206F6E200C61A502D009A97960A0030020A06E205C6E80E3206F6B5265666909
S2240060806C6C065660A900038510A0FE0020CA7620AE6EB54085126414A9FFFF95406053B9
S2240060A06176652D496E7075740A85607AD410D412D414D40CD40E5A60526573746F7265E7
S2240060C02D496E7075740DAC607A68850E68850C6885146885126885105A604576616C7543
S2240060E061746508C96020AC60209B76851084126414A9FFFF850C640E200C6120C9606050
S224006100496E7465727072657409E66020B864B540F06E20C67620C66BF019300CA502F056
S2240061200820596920937680E320117620117620DC6580D820C676202765B540F027E8E8F9
S2240061401AF00EA402D00520047780C020F469800FA402D00820117620117680AF20D76965
S22400616020937680A7E8E820906EA97661A00B0020A06E203C60206E6F7420666F756E641A
S224006180204C93765B810C616402605D018861860260436F6465048F614C4E6A3B436F6483
S2240061A065859961A960004CEA683A6E6F6E616D6507A461A504850820367680073A01B413
S2240061C061209961A9F065207B6980C33B81C161A90B662038694C886144756D7004D06141
S2240061E0D640A9000048205C6E204E7620FE6E6848206F6EA14220116FF64268D64030081B
S2240062001A890F00D0EA80DD4C93765365654C617465737409E061A50438E508A8A5082044
S224006220CA7680BC2E53021762A93C0020466E202F7720347620C46FA93E0020466E206FFB
S2240062406EB540F00D20367620427720C46FD64010EFE8E84C5C6E456E7669726F6E6D6533
S2240062606E743F0C2962E8E87440604D61726B6572066662204E6AA97D624C7B697A888833
S2240062808010466F7267657406746220F56BB440E8E88888B90000850688B90000291F0005
S2240062A085269838E5268504605B446566696E65645D898B6220B86420C66BD0034CE37589
S2240062C0A9FFFF9540605B556E646566696E65645D8BB56220B5624CCB715573657230055E
S2240062E0D4627B4C36764C617465737406E262A90600805B4C6174657374587408EF62A974
S2240063000800804B4261736504FF62A90000803F5374617465050B63A9020080323E496E97
S224006320031863A914008027536372032363A90A00801C426C6B032E63A90E008011536FBF
S224006340757263652D4964093963A90C0080000B1863017A4C367652616E64537461746556
S224006360094A63A91E0080E7465350036363A9180080DC467346756C6C066E63A91A0080FF
S224006380CE4653456D7074792B31097C63A91C0080BD54656D7030058D63A9260080B0532F
S2240063A06F75726365069A63A510A4124CCA7650537461636B06A863A940004C36764465DF
S2240063C063696D616C07B863A90A0085006048657803C863A9100080F2426C02D463A920CA
S2240063E0004C3676436F756E7405DE63A14029FF00F6404C3676426F756E647306EC63B5A5
S22400640040B4421875429542944060436F6D7061726507FF63B5428526B5468528B544D51F
S224006420409002B540852AE220A0FFFFC8C42AB00AB128D126F0F52A0A800BC220B540D5B1
S22400644044D0F4A90100C2202903003A95464C977628811564A929002074644C93765C81EB
S2240064605564A51285146050617273650562648006A92200203676CACAE220A4145A88B5E6
S22400648042C8C412B014D110F00AC920D0F3B110C920B0EBC884148880028414C2209838D3
S2240064A0E30195406818651095426050617273652D4E616D650A6F6420C164A920002074CA
S2240064C064E220A41488C8C412B006B110C92190F58414C220603E4E756D62657207B864E9
S2240064E0201677B5448032A14629FF0038E930009029C90A00900BE9070029DF00C90A00ED
S2240065009019C500B01548A500203676205873206D71207374F646D644D0CC4C16774E750C
S2240065206D62657206E06420C67674447446D400F4000020C6653079A00A00C92600F0153E
S224006540C92300F010A00200C92500F008A01000C92400D007840020C6653055C92B00F016
S22400656007C92D00D007830120C6653044C92700D01720C665303A954620C6653012C9271B
S22400658000F00DD642F6408007D642F64020E064A301F00920167720A17420167720C665FB
S2240065A03016C92E00D00A20C6651005A9FEFF800CE8E8A900008003A9FFFFE8E8E8E89555
S2240065C0407A7A840060D6403007A142F64229FF006045786563757465072765B540E8E883
S2240065E03A48603E426F647905DC65F6404C33757AC8D4228422A422B90000C8C8842220C5
S224006600E06580F24578697404EB65687A8422604272616E6368060B66B222852260E8E878
S224006620B53EF0F5E622E622604966821966A91E66203869209868A5044CD568456C736594
S224006640842E66A9196620316620637680075468656E844366A5048140E8E86042656769F1
S2240066606E8555664C9868416761696E8564664C6669556E74696C856F66A91E662038697D
S2240066804CD1685768696C65857A6680A1526570656174868B66206376206669A5048140C7
S2240066A0E8E860446F829666A95D712038694C98684C6F6F7084A866A9C16620D5684CD17A
S2240066C068A3031AC305F0078303B2228522607A68685AE622E622602B4C6F6F7085B866F1
S2240066E0A9E56680D6B540E8E8186303830338E305D53E6A553E10D7B222852260556E6C61
S2240067006F6F7006E0667A68685A6049010667A3034C36764A010F67A3074C36764465660F
S2240067206572051867204E6AA93C604C8C69446566657221062567B440B5429901004C939E
S22400674076446566657240063767B440B90100954060416374696F6E2D4F66894A6720F087
S22400676065F56B18633F701E667B67E069E0695969D168E0694A6759690B664A670B66499A
S22400678073825E6720F065F56B18633F701E669B67E0699F675969D1680B6637670B66B239
S2240067A022E622E622A8B5409901004C5976436173658484674C2C76456E6443617365875D
S2240067C0B567A95976203869E8E8B43E800AB9000048A5049900007AD0F4604F6682C267D2
S2240067E020F065E069F167596998683476D1680B66B540E8E8D540D007E8E8E622E6226077
S224006800B222852260456E644F6685E06720F0656376E0691966D16898686376D1686376C6
S2240068209868637648700B664368617273050D6860436861722B053068F6406043656C6C2A
S224006840043968A902004C367643656C6C7305436816406043656C6C2B0551684C337541F4
S2240068606C69676E055C68E6044604060460416C69676E6564076768F640564016406055A1
S2240068806E75736564067868A9006038E5044C367648657265048868A5044C36765061649E
S2240068A0039868A944001865044C36764275666665723A07A36820F06C8008416C6C6F74C4
S2240068C005B668B540E8E81865048504602C01C368B540E8E89204E604E604A9000092049B
S2240068E060432C02D168B540E8E8920480EB322C02E66820D16880D9506F7374706F6E650B
S22400690088F36820F065F56B3476E0690400B7753F70E1711E662869E069E0695969D168F4
S224006920E069596959690B6659690B6652656375727365870369A508203676801C5B436FF3
S2240069406D70696C655D89366920F56B800B436F6D70696C652C0849694CD1684272616ED4
S22400696063682C075969A9196620D5684CD1684A73722C046669A92000802020367680F66F
S2240069804A6D702C047669A94C00800F20367680F64C64232C048769A9A90020EA684CD122
S2240069A0684C646423049869A9A000209B6980E8A99B7680C6A9E8E820D568A9B5004CD504
S2240069C068A9CACA20D568A995404CD5684C69746572616C87A869A9E0692038694CD1680C
S2240069E0B222E622E6224C3676324C69746572616C88D769A9FD692038694CF368CACACA1A
S224006A00CAA422B900009540B902009542C8C8C8C88422604368617204F46920B864E8E8B0
S224006A204C54705B436861725D861B6A201B6A80A6B54020D568209868206376B54020C7EE
S224006A40684CEB704865616465722C072C6A20B864B4405AA142F64220EA687A88D0F4B57E
S224006A604020EA68A50620D568A504850685084C9376496D6D656469617465894E6AA98048
S224006A8000A4068888881900009900006054726176657273652D576F72644C697374117E5D
S224006AA06A209B764898801048CACA9540A30320E0657A8888B90000D0EE68604E616D65C0
S224006AC03E436F6D70696C650CA16AB44088888888B900003006A959694C3676A9DC6580C3
S224006AE0F84E616D653E496E746572707265740ECB6A604E616D653E537472696E670BF247
S224006B006AB440888888B90000291F00489838E3019540684C3676576F72647305016BA523
S224006B200680134820367620016B206F6E20906E7A8888B90000D0EB4C5C6E5365617263FA
S224006B40682D576F72644C6973740F1F6BA97F0038F542852AB54418E52A852CB541E220BB
S224006B60A07F00B12CC2208528B5408007C230A426B98100F04938E98300A8B97F004528E9
S224006B8029DF5FD0EC8426E230A42AC83017B126512CF0F729DFD0D5B12629DF38E941C942
S224006BA01A90E880C8C230A426B97F0009FF7F3003A901009542981869830095448004745A
S224006BC044E8E8E8E860A506203676204D6BE8E8B53E6046696E64044D6BB5404820EC6311
S224006BE020C66BD00848A303CACA9540687A4C36762701DA6B20B86420C66BF00160203C8F
S224006C00605B275D83F56B20F56B4CD769436F6E7374616E7408076C204E6A209869A936A4
S224006C20764C8C6932436F6E7374616E7409186C204E6A20A869A9CA764C8C6956617269CA
S224006C4061626C6508306C20F06CA900004CD568325661726961626C6509476C20476C80E2
S224006C60E956616C7565055C6C80AD3256616C756506696C80BA546F82746C20B86420C6A4
S224006C806BF017B440E8E8B9000029FF00C9A000F026C9A900F0064C3C60203C60A502D0D6
S224006CA008B540990100E8E8605A20B569A98D0020EA68681A4CD568A502D00DB5409901AA
S224006CC000B5429904004C93765A20B069A98C0020EA68A3011A20D568A98D0020EA686861
S224006CE0186904004CD568437265617465067B6C204E6AA9F96C4C7B69681A4C3676446FFD
S224006D0065733E85F06CA9196D203869A9200020EA68A9236D20D56860A522A40899010049
S224006D204C0B667A68D422C884221ACACA95404CF6652E2882066D20F065E06929006F641C
S224006D40906E0B662E2282376D207164A502F009A95C6D2038694C316A4C906E20626D4C15
S224006D60906EA422B90000C8C8CACA9440CACA9540187542852260532282496D207164A513
S224006D8002F009A9A46D2038694C316AB54048D404209868206376B54020C76820EB70683C
S224006DA07A4CCA7620626D604D7573744265436F6D70696C696E678F7C6DA502F001604CCB
S224006DC03C6041626F72742286BA6D20716420BA6DA9DA6D2038694C316AB540D00CE8E8D6
S224006DE0A5221872221A1A852260A422B90000C8C8CACA9440CACA954020906E4C3C604BAF
S224006E00657903CB6D200B6E4C3676080BA900005BE2242233E0002BB0052829FF006028B9
S224006E2080E94B65793F04056E20346EF003A9FFFF4C3676AD430029010060456D697404A4
S224006E40296EB540E8E84808DA782263E000FAB0032868602880F0435202426EA90D002078
S224006E60466EA90A0080DF5370616365055C6EA9200080D2537061636573066F6E8003208C
S224006E806F6ED64010F9E8E86054797065047D6E8007A14220466EF642D64010F54C93764A
S224006EA020CA7680EB41636365707406906EB542487442200B6EC90D00F038C90800F01C45
S224006EC0C97F00F017B4408426B442C426B0E4E2209301C220F64220466E80D7B442F0D3B8
S224006EE0D642A9080020466E206F6EA9080020466E80C0E8E868602E48657804AE6EB5412D
S224006F0020116F8008432E48657805FE6EB540E8E8484A4A4A4A201A6F68290F00C90A00EC
S224006F2090036906006930004C466E3C23020D6FA94400851660233E02306F18A5046516AE
S224006F40954238A94400E516954060486F6C64043B6FB540E8E8C616A416E2209104C220F7
S224006F60605369676E04526FA92D00E8E8B43E30E5602301686FA50020367620A173B540B4
S224006F80E8E8C90A00900369060069300080C7235302766F20766FB5421540D0F760552E0F
S224006FA002946F208275800644552E03A36F20B76F20906E4C6F6E20306F20946F4C3B6FE9
S224006FC02E01AE6F2076758005442E02C46F20D76F20906E4C6F6EB54008100320A1742017
S224006FE0306F20946F281006A92D0020566F4C3B6F552E5203CE6F204F71208275206D71D1
S22400700080162E5202F76F204F71207675206D718006442E52030770201E704C906E204FD9
S2240070207120D76F6838F5409010F00E48A9200020566F683AD0F54C3B6F6040211870A1C4
S2240070404095406021013F70B54281404C93764340024870A90000E220A140C220954060F8
S2240070604321025470B542E2208140C2204C93763240026570B440B902009540B900004C1E
S22400708036763221027570B440B542990000B5449902004C97762B2102877018B54261409F
S2240070A081404C93763F019B70203F704CC46F4D6F766504A970B544D542B02F8009434D60
S2240070C06F76653E06B670B540F015DA1875443A48B5401875423AA8B5403AFA440000FAC3
S2240070E04C9776434D6F766505C770B540F00C3ADAB4445AB442FA540000FA4C977646697F
S2240071006C6C04EB70B540E8E8B440F014E2208142C22088F00B983ADAB442BBC8540000D3
S224007120FA4C93764572617365050571A9000080D8426C616E6B052C71A9200080CB52445B
S224007140726F70053971688301603E52024671B540E8E87A485A60323E52034F717AB5425E
S22400716048B540485A4C9376523E025D717A685A4C367632523E036D71CACACACA7A689500
S224007180406895425A605240027971A3034C3676325240038B71A303A8A3054CCA76576990
S2240071A07468696E06967138B544F542954438B540F5429542E8E84C4A72303C3E03A771F1
S2240071C0B540D05B8049303D02C071B540D040804E303C02CB71B54030458033303E02D641
S2240071E071B540302AD038802644303C03E171B540302A801844303D03EF71B5421540D000
S2240072000C801A3D01FB71B540D542F010E8E87440603C3E020772B540D542F0F0E8E8A9CF
S224007220FFFF9540603C01177238B542F540700F30EB80D93E01297238B542F54070F1302A
S224007240CCD0DA80C8553C023872B542D54090CD80BB553E024A72B540D54290C080AE446B
S2240072603D025772B546D542D006B544D540F011E8E8E8E8809744553C036472209372B0D0
S224007280EFE8E8E8E88096443C027C7220937230F080DDB546D542B544F5405003490080D6
S2240072A06055332A038C72A90000A020007642764490031875406A88D0F39540764276447F
S2240072C06038A90000F5449544A90000F5429542A90000F5409540604E332A03A772B542CE
S2240072E0554008205775E8E820B874CACA20A7722830CE6055332F4D6F6406DE72A90000BB
S224007300164636443642A030002AB004D5409003F5403836463644364288D0EDE8E89540FF
S224007320604D2A2F03FD72204F7120DE72206D7120FD72E8E860554D2A032773A90000A011
S2240073401000764290031875406A88D0F57642954060554E2A033C73B54048203C73E8E801
S22400736020637668CACA9540203C732072764CAC754D2A025873B5405542082057752063B3
S22400738076205775203C732810034CA174602A017673203C73E8E860554E2F4D6F6406921E
S2240073A073A9000016443642A020002AB004D5409003F540383644364288D0EF9540605564
S2240073C04D2F4D6F6406A17320A1732011764C6376464D2F4D6F6406C873B540554208B586
S2240073E0404820FE736828100BB442F007D640187542954260534D2F52656D06DA73204F06
S22400740071B5404820B874A30320367620577520C873A30343011003204875681008A900B1
S2240074200038F542954268602F4D6F6404FE73204F71207675206D7180C44D6F64032F7482
S224007440202F74E8E8602F014074202F744C11762A2F4D6F64054A74204F71207673206D08
S22400746071809B2A2F0258742058744C11764D2B0268742076758005442B02737418B54644
S22400748075429546B544754095444C9376442D027D7420A17480E6444E6567617465079249
S2240074A07438A90000F5429542A90000F5409540604441627304A174B54030E5604C53686D
S2240074C069667406B874B440F005164288D0FBE8E86052536869667406C674B440F005569F
S2240074E04288D0FBE8E860322A02DB7416406044322A03EC741642364060322F02F574B5AD
S224007500400A76406044322F03FF7420FF7476426055322F030B755640604455322F0417FC
S224007520755640764260312B022175F64060322B022B75F64080F4312D023375D640604E24
S2240075406567617465063C75B54049FFFF1A954060416273034875B54030EF603E3C0257C1
S22400756075B540EB954060443E53236175E8E860533E44036D75B5401069805A553E4403A2
S2240075807675805F4D617803827538B540F5427012107EE8E8604D696E038A7538B540F510
S2240075A04270EE306CE8E8602B019C7518B542754080602D01AC7538B542F5408055496E3A
S2240075C07665727406B775B54049FFFF9540605472756504C775A9FFFF805B46616C7365F5
S2240075E005D675A90000804E416E6403E375B5423540801F4F7202EE75B5421540801458E8
S2240076006F7203F975B542554080084E6970030576B540E8E89540605053502D52657365B1
S22400762074091176A24000603001247680B5447570032C76B540CACA9540603F4475700407
S2240076403476B540D0F0604F766572044276B54280E444726F70044E76E8E860537761708B
S224007660045976B540B4429440954260526F74036376B444B5429544B5409542944060540F
S22400768075636B04727620637680AB3244726F70058676E8E880C2E8E880F8E8E8E8E8B41C
S2240076A03CB53E6032526F74049376E8E820B276CACAB448B5449548B54095449440603210
S2240076C044757004AB76B440B542CACACACA9440954260324F76657205C676B546B44480B7
S2240076E0E9444D617804DB7620937210A68015444D696E04E87620937230988007324E6946
S2240077007004F676B542B440E8E8E8E880C03253776170050477B540B44495449440B542DB
S224007720B446954694426044657074680516778624A9400038E5244A4C36765069636B0411
S2240077402F77B5400ADA6301AAB542FA954060526F6C6C044277E8E8B53EF01486240A653B
S22400776024AAB440B53E9540CACAE424D0F6944060DBDBDBDBDBDBDBDBDBDBDBDBDBDBDB0F
S22400FFE0DBDBDBDBDBDBDBDBDBDBDBDBDBDBDBDBDBDBDBDBDBDBDBDBDBDBDBDB0060DBDBF2
S804000000FB