S22400600018FBC238A900045B4BABA25A00A999041BA90A0085006402A99A048504A9296F64
S2240060208506A9DF6D4C24675053502D52657365740900003660A25A004C1F6730013460AF
S2240060404260CACA74004C1F674475700340605160B500CACA95004C1F6744726F70044FAA
S224006060606360E8E84C1F67537761700461607160B50048B50295006895024C1F674F7646
S2240060806572046F608760B50280C8526F740385609360B50448B5029504B50095026895C1
S2240060A0004C1F674E6970039160AC60B500E8E895004C1F675475636B04AA60BE60B5007E
S2240060C048B5029500CACA68950095044C1F673244726F7005BC60D960E8E88086DF60E80D
S2240060E0E880F63244757004D760EC60CACACACAB5069502B50495004C1F67324F766572F3
S22400610005EA600561CACACACAB50A9502B50895004C1F6732537761700503611E615AB55F
S22400612000B40495049400B502B406950694027A4C1F674465707468051C613D618610A933
S2240061405A0038E5104A4C53605069636B043B615261B5000ADA6301AAB502FA95004C1F38
S224006160673E520250616861B500E8E8484C1F67523E0266617761684C5360524002756106
S2240061808261A3014C53602B0180618D61B500E8E818750095004C1F672D018B619F61B531
S2240061A00238F5004CAE604E6567617465069D61B261B50049FFFF1A95004C1F6741627353
S2240061C003B061C561B50030EB4C1F67444E656761746507C361D86138A90000F502950273
S2240061E0A90000F50095004C1F674441627304D661F361B50030E14C1F674D617803F16199
S2240062000262B50038F502701A3004B5009502E8E84C1F674D696E0300621C62B50038F59C
S2240062200270E630E680E8312B021A622E62F6004C1F67322B022C623A62F60080F0312D04
S2240062400238624562D6004C1F67322A024362516216004C1F67322F024F625D62B5000A1E
S22400626076004C1F6755322F035B626D6256004C1F674C5368696674066B627D625AB4005A
S224006280F005160288D0FB7A4C6360525368696674067B6296625AB400F005560288D0FB37
S2240062A07A4C6360533E44039462AC62B500290080F003A9FFFF4C5360554D2A03AA62C1E1
S2240062C0625AA9000018A01000760290031875006A88D0F5760295007A4C1F674D2A02BFAC
S2240062E0624067F762C3616F60C361BF6275617C67F562D6614F67F962B5005502290080F2
S224006300484C1F672A01E1624067BF6261604F67554D2F4D4F440608631B635AB502B40448
S224006320940218A0100036022AB004D5009003F5003888D0F136029504E8E87A4C1F6753C6
S2240063404D2F52656D061963406766614F606661F1617B63C36119635C634F675E63A30386
S22400636043011008A9000038F5009500681008A9000038F5029502684C1F677D63A3034C56
S22400638053602F4D4F4404486340676661AA62756148634F672F01896340678963AA604FCE
S2240063A0674D6F640399634067896361604F67303D02A763B663B500D013A9FFFF95004C96
S2240063C01F67303C02B463C963B50030ED74004C1F67303E02C763D963B50030F0D0DB8093
S2240063E0EC3D01D763E763B500D502F011E8E880DC3C3E02E563F863B500D502F0EFE8E8D7
S22400640080B83C01F6630864B50238F500701130ED80DA3E0106641964B50238F50070EFF8
S22400642030CBD0DA80C7553C0217642D64B502D50090CB80B8553E022B643C64B500D5025D
S22400644090BC80A954727565043A644D64A9FFFF4C536046616C7365054B645D64A9000020
S2240064604C5360416E64035B646B64B50035024CAE604F720269647964B50015024CAE609B
S224006480586F720377648864B50055024CAE60496E766572740686649A64B50049FFFF9597
S2240064A0004C1F6740019864AA64A10095004C1F672101A864B764B50281004CD960434029
S2240064C002B564C564E220A100C22029FF0095004C1F67432102C364DA64B502E22081005A
S2240064E0C2204CD960324002D864EC645AB400B902009500B900007A4C5360322102EA64FD
S22400650002655AB400B502990000B5049902007A4CDF60434D6F76650500651D65B500F0ED
S2240065200E3ADA5AB4045AB402FA5400007AFA4CDF6046696C6C041B653B655AB402F01604
S224006540B500E2208104C220983AF00A3ADAB404BBC8540000FA7A4CDF604B6579033965E0
S22400656062652068654C5360080BA900005BE2242233E0002BB0052829FF00602880E94BA5
S22400658065793F0460658865209365F003A9FFFF4C5360AD430029010060456D69740486DF
S2240065A065A365B500E8E820AD654C1F6748DA5A08782263E000B005287AFA6860287AFACA
S2240065C080EC435202A165C96520CF654C1F67A90D0020AD65A90A0080D35370616365057A
S2240065E0C765E46520EA654C1F67A9200080BE53706163657306E265FA65D600300520EAB9
S2240066006580F74C63605479706504F8651666A10220AD65F602D60010F54CD960416363D7
S224006620657074060D6628665AB502487402206865C90D00F038C90800F01CC97F00F0171F
S224006640B4008412B402C412B0E4E2209301C220F60220AD6580D7B402F0D3D602A90800D0
S22400666020AD6520EA65A9080020AD6580C0E8E8687A4C1F672E4865780426667E66B50150
S224006680209766800A432E486578057C668F66B5002097664C6360484A4A4A4A20A06668FD
S2240066A0290F00C90A0090036906006930004CAD65552E028D66B866B500E8E820C866A9BF
S2240066C0200020AD654C1F675A8510F40000A900000610A010002AC5009002E5002610881B
S2240066E0D0F4C90A00900369060069300048A510D0DC800320AD6568D0FA7A602E01B666AE
S2240067000267B500100C49FFFF1A9500A92D0020AD65B500E8E820C86620EA654C1F67B96F
S2240067200000C8C88510B2108D00036C0003457865637574650700673A67B500E8E880E4A3
S2240067405AA410C8C84C1F674578697404386751677A4C1F674272616E6368064F676067B2
S224006760B90000A84C1F674966825E6740673C697C67E068C168C168E0684F677E67B5008A
S224006780E8E8C90000F0D9C8C84C1F67456C7365846C6740673C695E67E068C168C168E0C5
S2240067A0686F605E67B0675468656E8493674067C1686F60B5644F67426567696E85AE67C7
S2240067C04067C1684F67416761696E85C06740671A694F67556E74696C85CE6740673C69B0
S2240067E07C67E068E0684F675768696C6585DC6740673C697C67E068C168C168E0684F67E3
S22400680052657065617486F06740676F601A69C1686F60B5644F67446F82096840673C6983
S2240068202868E068C1684F672A68B50248B500484CD9604C6F6F70841C6840673C694668ED
S224006840E068E0684F674868681AC301F00848B90000A84C1F6768C8C84C1F672B4C6F6F65
S22400686070853A6840673C697068E068E0684F677268B500E8E88510186301830138E30300
S224006880C5106A45101007B90000A84C1F676868C8C880F7556E6C6F6F700664689F686880
S2240068A0684C1F6749019D68AA68A3014C53604A01A868B568A3054C53604865726504B33B
S2240068C068C368A5044C5360416C6C6F7405C168D268B50018650485044C63602C01D068E1
S2240068E0E268B50020EA684C63609204E604E604A90000920460432C02E068FD68B5002017
S22400690005694C6360920480E5436F6D70696C652C08FB684067E0684F6740673C695E67E4
S224006920E068E0684F674C69746572616C87146940673C693C691469E0684F673E69B9006F
S22400694000C8C84C536040674F60E068C1686F604F60D0681B654F674865616465722C0774
S224006960306964695AB4025AA104F6042005697A88D0F4B502200569A50620EA68A50485BF
S22400698006B50020EA687A4CDF604E616D653E537472696E670B62699A695AB4008888880B
S2240069A0B90000291F00489838E3019500687A4C5360576F7264730598694067276CA86404
S2240069C04F607C67DA69E2654F6098690D663C69FEFF8B61A8645E67C0696160C7654F6748
S2240069E05365617263682D576F72644C6973740FBA69F4695AA97F0038F5028516B504182B
S224006A00E5168518E220B502EBA07F00B118C2208514B5008007C230A412B98100F04A3842
S224006A20E98300A8B97F00451429DF5FD0EC8412E230A416C83017B1125118F0F729DFD02D
S224006A40D5B11229DF38E941C91A90E880C8C230A07F00B11209FF7F3003A901009502A518
S224006A601218698300950480047404E8E8E8E87A4C1F672701F2694067166D276CA864F23C
S224006A80697C67876A4F67C96D436F6E7374616E7408776A4067166D3C69A26A6269E068A7
S224006AA04F675AA410B902007A4C53605661726961626C6508946A4067CA6A4060E0684F9B
S224006AC06743726561746506B76A4067166D3C69D66A62694F67A5101A1A4C5360446F653F
S224006AE0733E85CA6A40673C69FB6AE0683C692000FB683C69046BE0684F67FD6A9892065D
S224006B007A4C1F67681A5AA8A5101A1ACACA95004C1F672E2282E56A40673C692200CF6CF2
S224006B203E6CA8647C67326B3C69366B146946694F670D664F6740673E6B0D664F67406BA5
S224006B405AA303A8B90000C8C8CACA9400CACA950018750283037A4C1F67532282186B40D3
S224006B60673C692200CF6C3E6CA8647C67796B3C69916B146946694F674F606661C16866A2
S224006B8061C1686F604F60D0681B65756175614F67936BB90000C8C8CACA9400CACA950036
S224006BA0187502A84C1F674D7573744265436F6D70696C696E670F5F6B40673E6CA864B4EB
S224006BC0637C67C76BC96D4F6741626F72742286B96B40673C692200CF6CB96B3C69E66BC5
S224006BE0146946694F67E86BB500D00DE8E89818790000A8C8C84C1F67B90000C8C8CACAE9
S224006C009400CACA9500A90C6C4C246740670D66C96D5AA4107B187902007A4C53604C6128
S224006C207465737406D26B126C06004261736504276C126C0000537461746505326C126C16
S224006C4002003E496E033E6C126C0C0050617273654C656E08486C126C0A00126C080053CA
S224006C606F7572636506576C6A6CA508CACA9500A50A4C5360446563696D616C07686C81C3
S224006C806CA90A0085004C1F67486578037F6C916CA9100080EE436F756E74058F6CA06C2D
S224006CA0A10029FF00F6004C536028819E6C40673C692900CF6CD7604F675C81AE6CC06C9E
S224006CC0A50A850C4C1F67506172736505BE6CD16CCACA5AE220A40C5A88B502C8C40AB0B7
S224006CE014D108F00AC920D0F3B108C920B0EBC8840C888002840CC2209838E3019500683A
S224006D0018650895027A4C1F6750617273652D4E616D650ACF6C4067246D3C692000CF6CE0
S224006D20246D4F67266D5AE220A40C88C8C40AB006B108C92190F5840CC2207A4C1F674E60
S224006D40756D62657206166D4A6D5A6410641220AD6D3053C92B00F007C92D00D007C61242
S224006D6020AD6D302D38E93000903CC90A00900BE9070029DF00C90A00902CC500B0288543
S224006D8014A400A9000018651088D0FA6514851080CEA5102412100449FFFF1A9502A9FFB3
S224006DA0FF95007A4C1F677A74024C6360D6003007A102F60229FF006042796503486D8463
S224006DC0E041626F727405BF6D40673460366B05003F00200D0ADF6D5175697404C96D40E5
S224006DE0671E6E40603E6CB5643C6902034F605B6CB5643C69FE002666576CB564E265406D
S224006E0060486CB564336E3E6CA864B4637C67E96D366B0500206F6B0D0A5E67E96D206E39
S224006E20A999041B4C1F67496E7465727072657409DF6D4067166D4F607C67A66EEA6027C7
S224006E406CA864F2694F607C676B6ED7637C67616E3E6CA8647C67616E1469D7605E6735ED
S224006E606EAA60AA6038675E67356E6160EA60486D4F607C67916E61603E6CA8647C678950
S224006E806E3069D7605E67356EAA60AA605E67356E61600D66366B0B00206E6F7420666F85
S224006EA0756E6420C96DD7604F675B81336EB06E64024C1F675D01AE6EBB6E86024C1F6773
S224006EC03A01B96E4067166D3C6940676269B96E4F673B81C46E40673C694F671469AE6EA4
S224006EE04F6744756D7004D66E40674362C76585607C663C6910006661E265196F8D667507
S224006F006143624F60B4637C67F76E61604F60C7637C67ED6ED7604F671B6FA102F602D698
S224006F20004C53602E5302E96E40673C693C00A1653B6100673C693E00A165E265436FC739
S224006F40654F67456FA95A008512E412B0143A3A48DAAAB500FA20C866A9200020AD656869
S224006F6080E64C1F67DBDBDBDBDBDBDBDBDBDBDBDBDBDBDBDBDBDBDBDBDBDBDBDBDBDBDBBB
S22400FFE0DBDBDBDBDBDBDBDBDBDBDBDBDBDBDBDBDBDBDBDBDBDBDBDBDBDBDBDB0060DBDBF2
S804000000FB