S22400600018FBC238A900045B4BABA27000A9AF041BA90A0085006402A9B0048504A9077043
S2240060208506A98E6E4C5367436F6C6404000000605053502D5265736574092F603F60A243
S22400604070004C4E6730013D604B60CACA74004C4E674475700349605A60B500CACA9500DB
S2240060604C4E6744726F700458606C60E8E84C4E6753776170046A607A60B50048B50295A0
S224006080006895024C4E674F7665720478609060B50280C8526F74038E609C60B50448B5BC
S2240060A0029504B50095026895004C4E674E6970039A60B560B500E8E895004C4E675475D9
S2240060C0636B04B360C760B50048B5029500CACA68950095044C4E673244726F7005C5604A
S2240060E0E260E8E88086E860E8E880F63244757004E060F560CACACACAB5069502B5049539
S224006100004C4E67324F76657205F3600E61CACACACAB50A9502B50895004C4E6732537717
S2240061206170050C6127615AB500B40495049400B502B406950694027A4C4E6744657074F1
S2240061406805256146618626A9700038E5264A4C5C605069636B0444615B61B5000ADA635E
S22400616001AAB502FA95004C4E673E520259617161B500E8E8484C4E67323E52036F618126
S22400618061B50248B500484CE260523E027F619161684C5C6032523E038F619D61CACACA2A
S2240061A0CA6895006895024C4E675240029B61B161A3014C5C602B01AF61BC61B500E8E8E7
S2240061C018750095004C4E672D01BA61CE61B50238F5004CB7604E656761746506CC61E170
S2240061E061B50049FFFF1A95004C4E6741627303DF61F461B50030EB4C4E67444E6567614F
S224006200746507F261076238A90000F5029502A90000F50095004C4E674441627304056275
S2240062202262B50030E14C4E674D61780320623162B50038F502701A3004B5009502E8E812
S2240062404C4E674D696E032F624B62B50038F50270E630E680E8312B0249625D62F6004C11
S2240062604E67322B025B626962F60080F0312D0267627462D6004C4E67322A02726280622D
S22400628016004C4E67322F027E628C62B5000A76004C4E6755322F038A629C6256004C4EE8
S2240062A0674C5368696674069A62AC625AB400F005160288D0FB7A4C6C60525368696674C8
S2240062C006AA62C5625AB400F005560288D0FB7A4C6C60533E4403C362DB62B500290080A8
S2240062E0F003A9FFFF4C5C60554D2A03D962F0625AA9000018A01000760290031875006ACE
S22400630088D0F5760295007A4C4E674D2A02EE626F672663F2617860F261EE628F61AB67AB
S224006320246305627E672863B5005502290080484C4E672A0110636F67EE626A607E675534
S2240063404D2F4D4F440637634A635AB502B404940218A0100036022AB004D5009003F500F5
S2240063603888D0F136029504E8E87A4C4E67534D2F52656D0648636F676F6158606F612089
S22400638062AA63F26148638B637E678D63A30343011008A9000038F5009500681008A90032
S2240063A00038F5029502684C4E67AC63A3034C5C602F4D4F440477636F676F61D9628F612E
S2240063C077637E672F01B8636F67B863B3607E674D6F6403C8636F67B8636A607E67303D6A
S2240063E002D663E563B500D013A9FFFF95004C4E67303C02E363F863B50030ED74004C4E51
S22400640067303E02F6630864B50030F0D0DB80EC3D0106641664B500D502F011E8E880DC14
S2240064203C3E0214642764B500D502F0EFE8E880B83C0125643764B50238F500701130ED82
S22400644080DA3E0135644864B50238F50070EF30CBD0DA80C7553C0246645C64B502D500A1
S22400646090CB80B8553E025A646B64B500D50290BC80A9547275650469647C64A9FFFF4C1D
S2240064805C6046616C7365057A648C64A900004C5C60416E64038A649A64B50035024CB7DB
S2240064A0604F72029864A864B50015024CB760586F7203A664B764B50055024CB760496EF6
S2240064C07665727406B564C964B50049FFFF95004C4E674001C764D964A10095004C4E6738
S2240064E02101D764E664B50281004CE260434002E464F464E220A100C22029FF0095004C77
S2240065004E67432102F2640965B502E2208100C2204CE26032400207651B655AB400B902C4
S224006520009500B900007A4C5C60322102196531655AB400B502990000B5049902007A4CA5
S224006540E860434D6F7665052F654C65B500F00E3ADA5AB4045AB402FA5400007AFA4CE8EB
S2240065606046696C6C044A656A655AB402F016B500E2208104C220983AF00A3ADAB404BB26
S224006580C8540000FA7A4CE8604B657903686591652097654C5C60080BA900005BE2242280
S2240065A033E0002BB0052829FF00602880E94B65793F048F65B76520C265F003A9FFFF4CF9
S2240065C05C60AD430029010060456D697404B565D265B500E8E820DC654C4E6748DA5A0831
S2240065E0782263E000B005287AFA6860287AFA80EC435202D065F86520FE654C4E67A90D35
S2240066000020DC65A90A0080D3537061636505F66513662019664C4E67A9200080BE5370DF
S224006620616365730611662966D600300520196680F74C6C60547970650427664566A102F3
S22400664020DC65F602D60010F54CE260416363657074063C6657665AB502487402209765D3
S224006660C90D00F038C90800F01CC97F00F017B4008428B402C428B0E4E2209301C220F6E7
S2240066800220DC6580D7B402F0D3D602A9080020DC65201966A9080020DC6580C0E8E868AF
S2240066A07A4C4E672E486578045566AD66B50120C666800A432E48657805AB66BE66B50024
S2240066C020C6664C6C60484A4A4A4A20CF6668290F00C90A0090036906006930004CDC65F1
S2240066E0552E02BC66E766B500E8E820F766A9200020DC654C4E675A8526F40000A90000D2
S2240067000626A010002AC5009002E500262688D0F4C90A00900369060069300048A526D049
S224006720DC800320DC6568D0FA7A602E01E5663167B500100C49FFFF1A9500A92D0020DCDD
S22400674065B500E8E820F7662019664C4E67B90000C8C88526B2268D00036C000345786540
S22400676063757465072F676967B500E8E880E45AA426C8C84C4E6745786974046767806705
S2240067807A4C4E674272616E6368067E678F67B90000A84C4E674966828D676F676B69AB6E
S2240067A0670F69F068F0680F697E67AD67B500E8E8C90000F0D9C8C84C4E67456C7365841F
S2240067C09B676F676B698D670F69F068F0680F6978608D67DF675468656E84C2676F67F060
S2240067E0687860E4647E67426567696E85DD676F67F0687E67416761696E85EF676F67498C
S224006800697E67556E74696C85FD676F676B69AB670F690F697E675768696C65850B686F3F
S224006820676B69AB670F69F068F0680F697E67526570656174861F686F6778604969F0685B
S2240068407860E4647E67446F8238686F676B6957680F69F0687E675968B50248B500484C32
S224006860E2604C6F6F70844B686F676B6975680F690F697E677768681AC301F00848B90086
S22400688000A84C4E6768C8C84C4E672B4C6F6F708569686F676B699F680F690F697E67A10F
S2240068A068B500E8E88526186301830138E303C5266A45261007B90000A84C4E676868C84C
S2240068C0C880F7556E6C6F6F70069368CE6868684C4E674901CC68D968A3014C5C604A0139
S2240068E0D768E468A3054C5C604865726504E268F268A5044C5C60416C6C6F7405F0680121
S22400690069B50018650485044C6C602C01FF681169B5002019694C6C609204E604E604A9A2
S2240069200000920460432C020F692C69B5002034694C6C60920480E5436F6D70696C652C64
S224006940082A696F670F697E676F676B698D670F690F697E674C69746572616C8743696F82
S224006960676B696B6943690F697E676D69B90000C8C84C5C606F6758600F69F06878605845
S22400698060FF684A657E674865616465722C075F6993695AB4025AA104F6042034697A888F
S2240069A0D0F4B502203469A506201969A5048506B5002019697A4CE8604E616D653E53742E
S2240069C072696E670B9169C9695AB400888888B90000291F00489838E3019500687A4C5C09
S2240069E060576F72647305C7696F67626CD7645860AB67096A11665860C7693C666B69FEFF
S224006A00FFBA61D7648D67EF696A60F6657E675365617263682D576F72644C6973740FE913
S224006A2069236A5AA97F0038F502852CB50418E52C852EE220B502EBA07F00B12EC220855B
S224006A402AB5008007C230A428B98100F04A38E98300A8B97F00452A29DF5FD0EC8428E2F5
S224006A6030A42CC83017B128512EF0F729DFD0D5B12829DF38E941C91A90E880C8C230A09E
S224006A807F00B12809FF7F3003A901009502A52818698300950480047404E8E8E8E87A4CD2
S224006AA04E672701216A6F67C56D626CD764216AAB67B66A7E67786E436F6E7374616E7486
S224006AC008A66A6F67C56D6B69D16A91690F697E675AA426B902007A4C5C605661726961D7
S224006AE0626C6508C36A6F67F96A49600F697E6743726561746506E66A6F67C56D6B69055F
S224006B006B91697E67A5261A1A4C5C60446F65733E85F96A6F676B692A6B0F696B692000C3
S224006B202A696B69336B0F697E672C6B9892067A4C4E67681A5AA8A5261A1ACACA95004CB4
S224006B404E672E2282146B6F676B6922007E6D796CD764AB67616B6B69656B436975697EC9
S224006B60673C667E676F676D6B3C667E676F6B5AA303A8B90000C8C8CACA9400CACA9500D1
S224006B8018750283037A4C4E67532282476B6F676B6922007E6D796CD764AB67A86B6B69E7
S224006BA0C06B436975697E6758606F61F0686F61F06878605860FF684A658F618F617E67C3
S224006BC0C26BB90000C8C8CACA9400CACA9500187502A84C4E674D7573744265436F6D70D2
S224006BE0696C696E670F8E6B6F67796CD764E363AB67F66B786E7E6741626F72742286E873
S224006C006B6F676B6922007E6DE86B6B69156C436975697E67176CB500D00DE8E898187928
S224006C200000A8C8C84C4E67B90000C8C8CACA9400CACA9500A93B6C4C53676F673C667836
S224006C406E557365723005016C7B4C5C605AA4267B187902007A4C5C604C617465737406D6
S224006C60496C4D6C06004261736504626C4D6C00005374617465056D6C4D6C02003E496E06
S224006C8003796C4D6C0C00486F6C6450747207836C4D6C0E0050617273654C656E08916CA9
S224006CA04D6C0A004D6C080052616E64537461746509A06C4D6C100054656D703005B46CFC
S224006CC04D6C2800536F7572636506C06CCF6CA508CACA9500A50A4C5C60446563696D6120
S224006CE06C07CD6CE66CA90A0085004C4E6748657803E46CF66CA9100080EE436F756E744E
S224006D0005F46C056DA10029FF00F6004C5C60436F6D7061726507036D1B6DB5028528B5F1
S224006D2006852AB504D5009002B500852C5AE220A0FFFFC8C42CB00AB12AD128F0F52A0ABA
S224006D40800BC220B500D504D0F4A90100C2202903003A95067A4CE8602881196D6F676B64
S224006D606929007E6DE0607E675C815D6D6F6DA50A850C4C4E675061727365056D6D806DE1
S224006D80CACA5AE220A40C5A88B502C8C40AB014D108F00AC920D0F3B108C920B0EBC88453
S224006DA00C888002840CC2209838E30195006818650895027A4C4E6750617273652D4E6127
S224006DC06D650A7E6D6F67D36D6B6920007E6DD36D7E67D56D5AE220A40C88C8C40AB006AB
S224006DE0B108C92190F5840CC2207A4C4E674E756D62657206C56DF96D5A64266428205C86
S224006E006E3053C92B00F007C92D00D007C628205C6E302D38E93000903CC90A00900BE91B
S224006E20070029DF00C90A00902CC500B028852AA400A9000018652688D0FA652A85268067
S224006E40CEA5262428100449FFFF1A9502A9FFFF95007A4C4E677A74024C6C60D600300770
S224006E60A102F60229FF006042796503F76D84E041626F7274056E6E6F673D60656B0500DE
S224006E803F00200D0A8E6E5175697404786E6F67CD6E4960796CE4646B6902035860A46C66
S224006EA0E4646B69FE005566A06CE46411664960836CE464E26E796CD764E363AB67C76E50
S224006EC0656B0300206F6BF6658D67986ECF6EA9AF041B4C4E67496E746572707265740910
S224006EE08E6E6F67C56D5860AB67556FF360626CD764216A5860AB671A6F0664AB67106FC6
S224006F00796CD764AB67106F4369E0608D67E46EB360B36067678D67E46E6A60F360F76DCE
S224006F205860AB67406F6A60796CD764AB67386F5F69E0608D67E46EB360B3608D67E46E76
S224006F406A603C66656B0B00206E6F7420666F756E6420786EE0607E675B81E26E5F6F64AF
S224006F60024C4E675D015D6F6A6F86024C4E67436F646504686F6F67A26FF068626CD764DF
S224006F80E4645D6F7E673B436F646585766F6F676B694C002A696B694E670F697E673A0129
S224006FA08E6F6F67C56D6B696F679169686F7E673B81A26F6F676B697E6743695D6F7E67AE
S224006FC044756D7004B46F6F677262F6658E60AB666B6910006F611166F76FBC668F6172D6
S224006FE0625860E363AB67D56F6A605860F663AB67CB6FE0607E67F96FA102F602D6004C65
S2240070005C602E5302C76F6F676B693C00D06544612F676B693E00D06511662170F6657E78
S224007020672370A970008528E428B0143A3A48DAAAB500FA20F766A9200020DC656880E657
S2240070404C4E67DBDBDBDBDBDBDBDBDBDBDBDBDBDBDBDBDBDBDBDBDBDBDBDBDBDBDBDBDB5B
S22400FFE0DBDBDBDBDBDBDBDBDBDBDBDBDBDBDBDBDBDBDBDBDBDBDBDBDBDBDBDB0060DBDBF2
S804000000FB