S22400600018FBC238A900045BA9AF041BA240004BABA90A0085006402A9B0048504A9237057
S2240060208506A9AE6E4C5967436F6C6404000000605053502D5265736574092F603F60A21D
S22400604040004C546730013D604B60CACA74304C54674475700349605A60B530CACA95306F
S2240060604C546744726F700458606C60E8E84C546753776170046A607A60B53048B5329534
S224006080306895324C54674F7665720478609060B53280C8526F74038E609C60B53448B5F6
S2240060A0329534B53095326895304C54674E6970039A60B560B530E8E895304C546754757D
S2240060C0636B04B360C760B53048B532953068953280893244726F7005C560DD60E8E88020
S2240060E08BE360E8E880F63244757004DB60F060CACACACAB5369532B53495304C546732DC
S2240061004F76657205EE600961CACACACAB53A9532B53895304C5467325377617005076150
S22400612022615AB530B43495349430B532B436953694327A4C546744657074680520614184
S224006140618626A9400038E5264A4C5C605069636B043F615661B5300ADA6301AAB532FA15
S22400616095304C54673E520254616C61B530E8E8484C5467323E52036A617C61B53248B5E5
S22400618030484CDD60523E027A618C61684C5C6032523E038A619861CACACACA68953068C9
S2240061A095324C54675240029661AC61A3014C5C602B01AA61B76118B53275304CB7602D45
S2240061C001B561C56138B532F5304CB7604E656761746506C361D861B53049FFFF1A953014
S2240061E04C546741627303D661EB61B53030EB4C5467444E656761746507E961FE6138A9C7
S2240062000000F5329532A90000F53095304C54674441627304FC611962B53030E14C5467BE
S2240062204D61780317622862B53038F532701A3004B5309532E8E84C54674D696E032662F9
S2240062404262B53038F53270E630E680E8312B0240625462F6304C5467322B0252626062C5
S224006260F63080F0312D025E626B62D6304C5467322A026962776216304C5467322F027562
S224006280628362B5300A76304C546755322F038162936256304C54674C5368696674069117
S2240062A062A3625AB430F005163288D0FB7A4C6C6052536869667406A162BC625AB430F06D
S2240062C005563288D0FB7A4C6C60533E4403BA62D262B530290080F003A9FFFF4C5C60559A
S2240062E04D2A03D062E7625AA9000018A01000763290031875306A88D0F5763295307A4CF7
S22400630054674D2A02E56275671D63E9617860E961E5628A61B1671B63FC6184671F63B5EE
S224006320305532290080484C54672A0107637567E5626A608467554E2F4D6F64062E634172
S224006340635AA9000016343632A020002AB004D5309003F530383634363288D0EF95307A35
S2240063604C5467554D2F4D6F64063F6375673F63B36078608467534D2F52656D066C6375E7
S224006380676A6158606A611762B263E9616C63936384679563A30343011008A9000038F5EB
S2240063A0309530681008A9000038F5329532684C5467B463A3034C5C602F4D6F64047F632B
S2240063C075676A61D0628A617F6384672F01C0637567C063B36084674D6F6403D0637567A5
S2240063E0C0636A608467303D02DE63ED63B530D013A9FFFF95304C5467303C02EB63006465
S224006400B53030ED74304C5467303E02FE631064B53030F0D0DB80EC3D010E641E64B53052
S224006420D532F011E8E880DC3C3E021C642F64B530D532F0EFE8E880B83C012D643F64B59B
S2240064403238F530701130ED80DA3E013D64506438B532F53070EF30CBD0DA80C7553C02FA
S2240064604E646464B532D53090CB80B8553E0262647364B530D53290BC80A95472756504E7
S22400648071648464A9FFFF4C5C6046616C73650582649464A900004C5C60416E6403926400
S2240064A0A264B53235304CB7604F7202A064B064B53215304CB760586F7203AE64BF64B592
S2240064C03255304CB760496E7665727406BD64D164B53049FFFF95304C54674001CF64E17C
S2240064E064A13095304C54672101DF64EE64B53281304CDD60434002EC64FC64E220A130B6
S224006500C22029FF0095304C5467432102FA641165B532E2208130C2204CDD603240020FDE
S2240065206523655AB430B902009530B900007A4C5C60322102216539655AB430B532990039
S22400654000B5349902007A4CE360434D6F76650537655465B530F00E3ADA5AB4345AB432FC
S224006560FA5400007AFA4CE36046696C6C04526572655AB432F016B530E2208134C2209850
S2240065803AF00A3ADAB434BBC8540000FA7A4CE3604B65790370659965209F654C5C6008B9
S2240065A00BA900005BE2242233E0002BB0052829FF00602880E94B65793F049765BF6520BF
S2240065C0CA65F003A9FFFF4C5C60AD430029010060456D697404BD65DA65B530E8E820E4BE
S2240065E0654C546748DA5A08782263E000B005287AFA6860287AFA80EC435202D86500666E
S2240066002006664C5467A90D0020E465A90A0080D3537061636505FE651B662021664C54A1
S22400662067A9200080BE5370616365730619663166D630300520216680F74C6C60547970BE
S22400664065042F664D66A13220E465F632D63010F54CDD604163636570740644665F665A6D
S224006660B532487432209F65C90D00F038C90800F01CC97F00F017B4308428B432C428B0E0
S224006680E4E2209301C220F63220E46580D7B432F0D3D632A9080020E465202166A908008E
S2240066A020E46580C0E8E8687A4C54672E486578045D66B566B53120CE66800A432E48655C
S2240066C07805B366C666B53020CE664C6C60484A4A4A4A20D76668290F00C90A0090036966
S2240066E006006930004CE465552E02C466EF66B530E8E820FF66A9200020E4654C54675A90
S2240067008526F40000A900000626A010002AC5009002E500262688D0F4C90A00900369067D
S2240067200069300048A526D0DC800320E46568D0FA7A602E01ED663967B530100CA92D000B
S22400674020E465B53049FFFF1AE8E820FF662021664C5467B90000C8C88526B2268DFE0328
S2240067606CFE03457865637574650737676F67B530E8E880E45AA426C8C84C54674578695F
S22400678074046D6786677A4C54674272616E63680684679567B90000A84C546749668293D3
S2240067A06775676E69B1671269F368F36812698467B367E8E8B52EF0DCC8C84C5467456C2A
S2240067C0736584A16775676E6993671269F368F368126978609367E2675468656E84C5679D
S2240067E07567F3687860EC648467426567696E85E0677567F3688467416761696E85F267B9
S22400680075674C698467556E74696C85006875676E69B1671269126984675768696C6585D4
S2240068200E6875676E69B1671269F368F36812698467526570656174862268756778604C0A
S22400684069F3687860EC648467446F823B6875676E695A681269F36884675C68B53248B5A6
S22400686030484CDD604C6F6F70844E6875676E6978681269126984677A68681AC301F008AA
S22400688048B90000A84C546768C8C84C54672B4C6F6F70856C6875676E69A2681269126973
S2240068A08467A468B530E8E88526186301830138E303C5266A45261007B90000A84C54671F
S2240068C06868C8C880F7556E6C6F6F70069668D16868684C54674901CF68DC68A3014C5C3A
S2240068E0604A01DA68E768A3054C5C604865726504E568F568A5044C5C60416C6C6F7405C3
S224006900F3680469B53018650485044C6C602C0102691469B530201C694C6C609204E6046C
S224006920E604A90000920460432C0212692F69B5302037694C6C60920480E5436F6D706995
S2240069406C652C082D6975671269846775676E6993671269126984674C69746572616C8773
S224006960466975676E696E694669126984677069B90000C8C84C5C60756758601269F36830
S224006980786058600269526584674865616465722C07626996695AB4325AA134F63420371F
S2240069A0697A88D0F4B532203769A506201C69A5048506B530201C697A4CE360496D6D655D
S2240069C06469617465899469CA69A980005AA4068888881900009900007A604E616D653EE2
S2240069E0537472696E670BC869EB695AB430888888B90000291F00489838E3019530687A11
S224006A004C5C60576F72647305E9697567826CDF645860B1672B6A19665860E96944666EF0
S224006A2069FEFFB561DF649367116A6A60FE6584675365617263682D576F72644C6973744A
S224006A400F0B6A456A5AA97F0038F532852CB53418E52C852EE220B532EBA07F00B12EC213
S224006A6020852AB5308007C230A428B98100F04A38E98300A8B97F00452A29DF5FD0EC840A
S224006A8028E230A42CC83017B128512EF0F729DFD0D5B12829DF38E941C91A90E880C8C244
S224006AA030A07F00B12809FF7F3003A901009532A52818698300953480047434E8E87A4C22
S224006AC06C602701436A7567E56D826CDF64436AB167D66A8467986E436F6E7374616E7471
S224006AE008C66A7567E56D6E69F16A9469126984675AA426B902007A4C5C60566172696142
S224006B00626C6508E36A7567196B49601269846743726561746506066B7567E56D6E692584
S224006B206B94698467A5261A1A4C5C60446F65733E85196B75676E694A6B12696E6920004A
S224006B402D696E69536B126984674C6B9892067A4C5467681A5AA8A5261A1ACACA95304C0F
S224006B6054672E2282346B75676E6922009E6D996CDF64B167816B6E69856B4669786984DD
S224006B80674466846775678D6B446684678F6B5AA303A8B90000C8C8CACA9430CACA9530EF
S224006BA018753283037A4C5467532282676B75676E6922009E6D996CDF64B167C86B6E69F7
S224006BC0E06B46697869846758606A61F3686A61F36878605860026952658A618A61846773
S224006BE0E26BB90000C8C8CACA9430CACA9530187532A84C54674D7573744265436F6D70FC
S224006C00696C696E670FAE6B7567996CDF64EB63B167166C986E846741626F72742286088F
S224006C206C75676E6922009E6D086C6E69356C466978698467376CB530D00DE8E89818793E
S224006C400000A8C8C84C5467B90000C8C8CACA9430CACA9530A95B6C4C596775674466985C
S224006C606E557365723005216C7B4C5C605AA4267B187902007A4C5C604C61746573740696
S224006C80696C6D6C06004261736504826C6D6C00005374617465058D6C6D6C02003E496E26
S224006CA003996C6D6C0C00486F6C6450747207A36C6D6C0E0050617273654C656E08B16CE9
S224006CC06D6C0A006D6C080052616E64537461746509C06C6D6C100054656D703005D46C3C
S224006CE06D6C2800536F7572636506E06CEF6CA508CACA9530A50A4C5C60446563696D6170
S224006D006C07ED6C066DA90A0085004C546748657803046D166DA9100080EE436F756E74A4
S224006D2005146D256DA13029FF00F6304C5C60436F6D7061726507236D3B6DB5328528B5C0
S224006D4036852AB534D5309002B530852C5AE220A0FFFFC8C42CB00AB12AD128F0F52A0ADA
S224006D60800BC220B530D534D0F4A90100C2202903003A95367A4CE3602881396D75676E90
S224006D806929009E6DDB6084675C817D6D8F6DA50A850C4C54675061727365058D6DA06D1A
S224006DA0CACA5AE220A40C5A88B532C8C40AB014D108F00AC920D0F3B108C920B0EBC88403
S224006DC00C888002840CC2209838E30195306818650895327A4C546750617273652D4E61A1
S224006DE06D650A9E6D7567F36D6E6920009E6DF36D8467F56D5AE220A40C88C8C40AB006DC
S224006E00B108C92190F5840CC2207A4C54674E756D62657206E56D196E5A64266428207CFE
S224006E206E3053C92B00F007C92D00D007C628207C6E302D38E93000903CC90A00900BE9DB
S224006E40070029DF00C90A00902CC500B028852AA400A9000018652688D0FA652A85268047
S224006E60CEA5262428100449FFFF1A9532A9FFFF95307A4C54677432E8E880F6D6303007D6
S224006E80A132F63229FF006042796503176E84E041626F7274058E6E75673D60856B0500F7
S224006EA03F00200D0AAE6E5175697404986E7567ED6E4960996CEC646E6900035860C46C97
S224006EC0EC646E69FE005D66C06CEC6419664960A36CEC64026F996CDF64EB63B167E76E4E
S224006EE0856B0300206F6BFE659367B86EEF6EA9AF041B4C5467496E74657270726574097C
S224006F00AE6E7567E56D5860B167756FEE60826CDF64436A5860B1673A6F0E64B167306FA0
S224006F20996CDF64B167306F4669DB609367046FB360B3606D679367046F6A60EE60176EF2
S224006F405860B167606F6A60996CDF64B167586F6269DB609367046FB360B3609367046F96
S224006F606A604466856B0B00206E6F7420666F756E6420986EDB6084675B81026F7F6F6405
S224006F80024C54675D017D6F8A6F86024C5467436F646504886F7567C26FF368826CDF6402
S224006FA0EC647D6F84673B436F646585966F75676E694C002D696E695467126984673A019D
S224006FC0AE6F7567E56D6E6975679469886F84673B81C26F75676E69846746697D6F8467BE
S224006FE044756D7004D46F75676962FE658E60B3666E69100019661370C46669625860EB1D
S22400700063B167F56F6A605860FE63B167EB6FDB6084671570A134F634D6324C5C602E53FC
S22400702002E76F75676E693C00D8653F6137676E693E00D86519663D70FE6584673F70A965
S22400704040008528E428B0143A3A48DAAAB530FA20FF66A9200020E4656880E64C5467DBE8
S22400FFE0DBDBDBDBDBDBDBDBDBDBDBDBDBDBDBDBDBDBDBDBDBDBDBDBDBDBDBDB0060DBDBF2
S804000000FB