S22400600018FBC238A900045BA9AF041BA240004BAB20E76C6402A9B0048504A93270850682
S2240060204CF86E436F6C6404000080D45053502D5265736574092A60A240006044757003AB
S2240060403860B530CACA9530603F447570044260B530D0F06044726F70245060E8E8605306
S224006060776170045C60B530B43294309532604F766572046660B53280CA526F74037660B8
S224006080B434B5329534B53095329430605475636B04806020666080AB3244726F700594A7
S2240060A060E8E880B7E8E880F83244757004A160B430B532CACACACA9430953260324E6905
S2240060C07004B060B532B430E8E8E8E880EA324F76657205C460B536B43480D832537761E3
S2240060E07005D660B530B43495349430B532B4369536943260446570746805E460861AA94D
S224006100400038E51A4A4C44605069636B04FD60B5300ADA6301AAB532FA9530603E520272
S2240061201061B530E8E87A485A60323E520322617AB53248B530485A4CA160523E023061D0
S2240061407A685A4C446032523E034061CACACACA7A6895306895325A605240024C61A30309
S2240061604C4460325240035E61A305CACA9530A3034C446054727565046961A9FFFF4C4468
S2240061806046616C7365057B61A900004C4460496E76657274068961B53049FFFF9530607C
S2240061A0416E64039861B532353080434F7202A661B53215308038586F7203B161B5325584
S2240061C030802C4D617803BD6138B530F5327012101BE8E8604D696E03C96138B530F532E1
S2240061E070EE3009E8E8604E697003DB61B530E8E89530602B01ED6118B532753080F02DD8
S22400620001F86138B532F53080E54E6567617465060362B53049FFFF1A9530604162730333
S2240062201362B53030EF604D2B02226220FE628005442B022C6218B53675329536B53475AB
S2240062403095344CA160442D023662205A6280E6444E6567617465074B6238A90000F53252
S2240062609532A90000F53095306044416273045A62B53030E560312B227162F63060322BB7
S224006280027B62F63080F4312D228362D63060322A228C6216306044322A2394621632366C
S2240062A03060322F029D62B5300A76306044322F03A76220A76276326055322F23B36256CC
S2240062C030604455322F24BF6256307632604C536869667406C962B430F005163288D0FB6D
S2240062E0E8E86052536869667406D762B430F005563288D0FBE8E860533E4403EC62B530EB
S22400630010094C7B61553E4403FE624C8961443E53230B63E8E860554D2A031463A9000042
S224006320A01000763290031875306A88D0F57632953060554E2A031D63B53048201D63E827
S224006340E820666068CACA9530201D632080604CF8614D2A023963B5305532082022622017
S2240063606660202262201D632810034C5A62602A015763201D63E8E860554E2F4D6F6406BE
S2240063807363A9000016343632A020002AB004D5309003F530383634363288D0EF953060F6
S2240063A0554D2F4D6F6406826320826320ED614C6660534D2F52656D06A963202261B530EA
S2240063C048207162A30320446020226220A963A30343011003201362681008A9000038F55B
S2240063E032953268602F4D6F6404BB6320226120FE6220406180C42F01EC6320EC634CED17
S224006400614D6F6403FB6320EC63E8E860303D020764B530D040804E303C021264B5303060
S224006420458033303E021D64B530302AD038802644303C032864B530302A801844303D03B7
S2240064403664B5321530D00C801A3D014264B530D532F010E8E87430603C3E024E64B53044
S224006460D532F0F0E8E8A9FFFF9530603C015E6438B532F530700F30EB80D93E0170643813
S224006480B532F53070F130CCD0DA80C8553C027F64B532D53090CD80BB553E029164B53033
S2240064A0D53290C080AE443D029E64B536D532D01CB534D530D016E8E8E8E880A744553C7F
S2240064C003AB64B536D532B534F53090EAE8E8E8E88081443C02C364B536D532B534F530E1
S2240064E050016A30D280E64021D864A1309530602101EB64B53281304CA160434002F464AE
S224006500A90000E220A130C2209530604321020065B532E2208130C2204CA16032400211DA
S22400652065B430B902009530B900004C44603221022165B430B532990000B5349902004CD5
S224006540A5602B21023365B53218613081304CA160434D6F7665054765B530F00C3ADAB489
S224006560345AB432FA540000FA4CA56046696C6C045965B530E8E8B430F014E2208132C2AC
S2240065802088F00B983ADAB432BBC8540000FA4CA1604B6579037365209E654C4460080B79
S2240065A0A900005BE2242233E0002BB0052829FF00602880E94B65793F04986520C765F0D1
S2240065C003A9FFFF4C4460AD430029010060456D697404BC65B530E8E84808DA782263E032
S2240065E000FAB0032868602880F0435202D565208F6B02000D0A60537061636505EF65A90F
S224006600200080D553706163657306FF65800320FF65D63010F9E8E86054797065040D66D8
S2240066208007A13220D965F632D63010F54CA160416363657074062066B532487432209EAE
S22400664065C90D00F038C90800F01CC97F00F017B430841CB432C41CB0E4E2209301C22050
S224006660F63220D96580D7B432F0D3D632A9080020D96520FF65A9080020D96580C0E8E8D5
S22400668068602E486578043966B531209C668008432E486578058966B530E8E8484A4A4A42
S2240066A04A20A56668290F00C90A0090036906006930004CD9653C23029866A94400850EE9
S2240066C060233E02BB6618A504650E953238A94400E50E953060486F6C6404C666B530E815
S2240066E0E8C60EA40EE2209104C220602301DD66A500204460208263B530C90A00900369C5
S224006700060069300080D8235302F06620F066B5321530D0F760552E020C67200B638006DA
S22400672044552E031B6720BB66200C6720C66680112E01266720FE628005442E0235672066
S22400674048672020664CFF65B530081003205A6220BB66200C67281006A92D0020E1664CB8
S224006760C6662E52023F6720226120FE622040618006442E52036767207E674C20662022A8
S224006780612048676838F5309010F00E48A9200020E166683AD0F54CC666604578656375B0
S2240067A07465077867B530E8E83A48604578697484A567A960004CEB68E8E8B52EF0057A8A
S2240067C0C8C8C85A60496682B367A9B96720056920B7684C2969456C736584CA6720D0674E
S2240067E020666080075468656E84DD67B430E8E8A50499010060426567696E85EC674CB7B9
S22400680068416761696E85FE674C2469556E74696C850968A9B96720056980ED5768696C0E
S2240068206585146880A4526570656174862468B532202969B430A5049901004CA160446F96
S224006840822F68A930612005694CB7684C6F6F70844368A95C682005694C2469A3031AC3C7
S22400686005F0038303607A6868C8C8C85A602B4C6F6F70855368A97B6880DBE8E8B52E1822
S2240068806303830338E305D52E6A552E10D860556E6C6F6F70867668A968684CD668490181
S2240068A09868A3034C44604A01A268A3074C44604865726504AB68A5044C4460416C6C6F92
S2240068C07405B768B530E8E81865048504602C01C468B530E8E89204E604E604A900009249
S2240068E00460432C02D268B530E8E8920480EB322C02E76820D26880D95265637572736593
S22400690087F468A506204460800B436F6D70696C652C080369A9200020EB6880B54A6D7094
S2240069202C041569A94C0080EF20446080F64C64232C042469A9A90080DE50757368412CB9
S224006940063569A9CACA20D668A995308088506F70412C054369A9B53020D668A9E8E84C7F
S224006960D6684C646423045669A9A00020186980C44C69746572616C87696920356980C385
S224006980324C69746572616C887B69206969A9B4604C0569200569B53020D66820B76820EE
S2240069A06660B53020C8684C59654865616465722C078B6920B76DB4305AA132F63220EBD5
S2240069C0687A88D0F4B53020EB68A50620D668A50485064CA160496D6D656469617465898A
S2240069E0B469A98000A406888888190000990000604E616D653E537472696E670BE269B4B8
S224006A0030888888B90000291F00489838E3019530684C4460576F72647305FF69A50680E8
S224006A20134820446020FF6920FF652020667A8888B90000D0EB4CEF655365617263682D5F
S224006A40576F72644C6973740F1D6AA97F0038F5328520B53418E5208522B531E220A07F83
S224006A6000B122C220851EB5308007C230A41CB98100F04938E98300A8B97F00451E29DF39
S224006A805FD0EC841CE230A420C83017B11C5122F0F729DFD0D5B11C29DF38E941C91A90D3
S224006AA0E880C8C230A41CB97F0009FF7F3003A9010095329818698300953480047434E813
S224006AC0E8E8E860A506204460204B6AE8E8B52E6027014B6A20B76D20C46AF0016020E280
S224006AE06E5B275D83D56A20D56A4C7B69436F6E7374616E7408E76A20B469203569A94468
S224006B00604C296932436F6E7374616E7409F86A20B469206969A9B4604C296956617269EF
S224006B2061626C6508106B204A6BA900004CD668325661726961626C6509276B20276B800C
S224006B40E9437265617465063C6B20B469A9536B4C0569681A4C4460446F65733E854A6B73
S224006B60A9726B200569A9681A20D668A944604C0569681AA406990100602E2282606B2089
S224006B80706DA502F006A98F6B4C94694C206620956B4C2066A303A8C8B90000C8C8CACAD3
S224006BA09430CACA95301875323A8303605322827F6B20706DA502F006A9D76B4C9469B570
S224006BC03048D40420B768206660B53020C868205965687A4CB46020956B604D757374427B
S224006BE065436F6D70696C696E678FB26BA502D00320E26E6041626F72742286ED6B20700B
S224006C006D20ED6BA90A6C4C9469B530D00BE8E87A98387901001A48607A5AC8B90000C8EF
S224006C20C89430CACA95302020664CE26E557365723005FE6B7B4C44604C6174657374060D
S224006C40356CA9060080274261736504426CA90000801B5374617465054E6CA90200800ECE
S224006C603E496E035B6CA90C008003A908000B1863017A4C446052616E64537461746509E7
S224006C80666CA9160080E746535003826CA9100080DC467346756C6C068D6CA9120080CEB4
S224006CA04653456D7074792B31099B6CA9140080BD54656D703005AC6CA91C0080B0536F27
S224006CC07572636506B96CA508A40A4CB46050537461636B06C76CA930004C4460446563C6
S224006CE0696D616C07D76CA90A0085006048657803E76CA9100080F2436F756E7405F36CF7
S224006D00A13029FF00F6304C4460436F6D7061726507006DB532851CB536851EB534D53020
S224006D209002B5308520E220A0FFFFC8C420B00AB11ED11CF0F52A0A800BC220B530D534FC
S224006D40D0F4A90100C2202903003A95364CA5602881146DA9290020736D4CA1605C8154E2
S224006D606DA50A850C60506172736505616D8006A92200204460CACAE220A40C5A88B5320F
S224006D80C8C40AB014D108F00AC920D0F3B108C920B0EBC8840C888002840CC2209838E351
S224006DA00195306818650895326050617273652D4E616D650A6E6D20C06DA9200020736D50
S224006DC0E220A40C88C8C40AB006B108C92190F5840CC220603E4E756D62657207B76D203C
S224006DE0E460B5348032A13629FF0038E930009029C90A00900BE9070029DF00C90A0090DD
S224006E0019C500B01548A500204460203963204061202C62F636D634D0CC4CE4604E756D5C
S224006E2062657206DF6D20B06074347436D400F4000020C56E3079A00A00C92600F015C915
S224006E402300F010A00200C92500F008A01000C92400D007840020C56E3055C92B00F007C7
S224006E60C92D00D007830120C56E3044C92700D01720C56E303A953620C56E3012C9270011
S224006E80F00DD632F6308007D632F63020DF6DA301F00920E460205A6220E46020C56E30DD
S224006EA016C92E00D00A20C56E1005A9FEFF800CE8E8A900008003A9FFFFE8E8E8E8953044
S224006EC07A7A840060D6303007A132F63229FF006042796503266E4C84E041626F727405B1
S224006EE0D76E203860208F6B05003F00200D0A80075175697404E26EA9AF041B6402A900F7
S224006F00038508A0FE0020B460203966B530E8E8850A20FF65640C20376FA502D008208F1F
S224006F206B0300206F6B20EF6580D3496E7465727072657409F86E20B76DB530F06A20B09E
S224006F406020C46AF019300CA502F00820156920A16080E320ED6120ED6120A56780D820F8
S224006F60B06020266EB530F027E8E81AF00EA402D00520C46080C0208B69800FA402D00844
S224006F8020ED6120ED6180AF207B6920A16080A7E8E8202066208F6B0B00206E6F74206603
S224006FA06F756E642020E26E4CA1605B81376F6402605D01AF6F860260436F646504B66FE9
S224006FC020D46F80EA3B436F646585C06F4CB3673A01CD6F20B46980DD3B81D46F20B367C5
S224006FE080CD44756D7004DD6FD630A900004820EF65207660208966684820FF65A13220C2
S2240070009C66F63268D63030081A890F00D0EA80DD4CA1605365654C617465737409E96F9A
S224007020A50438E506A8A50620B46080BC2E53022070A93C0020D96520FD602042602035D2
S22400704067A93E0020D96520FF65B530F00D204460201061203567D63010EFE8E84CEF6593
S22400FFE0DBDBDBDBDBDBDBDBDBDBDBDBDBDBDBDBDBDBDBDBDBDBDBDBDBDBDBDB0060DBDBF2
S804000000FB