S22400600018FBC238A900045BA9AF041BA240004BAB20E46A6402A9B0048504A9CA6D8506F2
S2240060204CAA6C436F6C6404000080D45053502D5265736574092A60A240006044757003FB
S2240060403860B530CACA95306044726F70244260E8E8606053776170045060B530B432946C
S224006060309532604F766572045B60B53280D5526F74036B60B434B5329534B53095329452
S22400608030604E6970037560B530E8E89530605475636B048860205B6080A93244726F7044
S2240060A0059660E8E880A9E8E880F83244757004A360B430B532CACACACA9532943060322D
S2240060C04F76657205B260B536B43480E9325377617005C760B530B43495349430B532B4DE
S2240060E0369536943260446570746805D5608624A9400038E5244A4C44605069636B04EEBE
S22400610060B5300ADA6301AAB532FA9530603E52020161B530E8E87A485A60323E52031340
S224006120617AB53248B530485A4CA360523E0221617A685A4C446032523E033161CACACA85
S224006140CA7A6895306895325A605240023D61A3034C44602B014F6118B53275304C8A6062
S2240061602D01586138B532F5304C8A604E6567617465066461B53049FFFF1A95306041628C
S22400618073037561B53030EF60444E656761746507846138A90000F5329532A90000F53029
S2240061A095306044416273049361B53030E5604D617803AA61B53038F53270163004B530F2
S2240061C09532E8E8604D696E03B561B53038F53270EA30EA80EC312B22CB61F630606032A0
S2240061E02B02DB61F63080F3312D22E461D6306060322A22ED6116306060322F02F661B5CC
S224006200300A76306055322F23FF61563060604C5368696674060B62B430F005163288D084
S224006220FBE8E860525368696674061862B430F005563288D0FBE8E860533E44032D62B55E
S22400624030290080F003A9FFFF4C4460554D2A033F62A90000A01000763290031875306AAB
S22400626088D0F576329530604D2A025262B530553208208461205B6020846120526228106D
S224006280034C9361602A016D62205262E8E860554E2F4D6F64068962A9000016343632A07A
S2240062A020002AB004D5309003F530383634363288D0EF953060554D2F4D6F640698622097
S2240062C098622088604C5B60534D2F52656D06BF62201361B5304820AA61A3032044602020
S2240062E0846120BF62A30343011003207561681008A9000038F532953268602F4D6F640416
S224006300D162201361203F6220316180C42F0102632002634C88604D6F6403116320026390
S224006320E8E860303D021D63B530D00FA9FFFF953060303C022863B53030F1743060303E38
S224006340023763B53030F4D0E380F03D014363B530D532F010E8E87430603C3E024F63B5E9
S22400636030D532F0F0E8E880C33C015F6338B532F530700F30EF80DD3E016D6338B532F58D
S2240063803070F130D0D0DE80CC553C027C63B532D53090D180BF553E028E63B530D532906D
S2240063A0C480B254727565049B63A9FFFF4C446046616C736505AA63A900004C4460416E64
S2240063C06403B863B53235304C8A604F7202C463B53215304C8A60586F7203D063B53255BD
S2240063E0304C8A60496E7665727406DD63B53049FFFF9530604021ED63A1309530606021FB
S22400640001F963B53281304CA3604340020364E220A130C22029FF009530604321020F646C
S224006420B532E2208130C2204CA3603240022064B430B902009530B900004C446032210232
S2240064403064B430B532990000B5349902004CA760434D6F7665054264B530F00C3ADAB43A
S224006460345AB432FA540000FA4CA76046696C6C045964B432F016B530E2208134C22098BE
S2240064803AF00A3ADAB434BBC8540000FA4CA7604B6579037364209C644C4460080BA900D4
S2240064A0005BE2242233E0002BB0052829FF00602880E94B65793F04966420C564F003A9D5
S2240064C0FFFF4C4460AD430029010060456D697404BA64B530E8E848DA08782263E000B032
S2240064E00428FA686028FA80EF435202D364A90D0020D764A90A0080DE537061636505EE49
S22400650064A9200080D15370616365730601658003200165D63010F9E8E86054797065043F
S2240065200F658007A13220D764F632D63010F54CA360416363657074062265B532487432F9
S224006540209C64C90D00F038C90800F01CC97F00F017B4308426B432C426B0E4E220930164
S224006560C220F63220D76480D7B432F0D3D632A9080020D764200165A9080020D76480C0CB
S224006580E8E868602E486578043B65B531209E658008432E486578058B65B530E8E8484A04
S2240065A04A4A4A20A76568290F00C90A0090036906006930004CD764552E029A65B530E8E6
S2240065C0E820C7654C01658524F40000A900000624A010002AC5009002E500262488D0F4B4
S2240065E0C90A00900369060069300048A524D0DC800320D76468D0FA602E01BD65B53010B5
S22400660009207561A92D0020D76480B14578656375746507FD65B530E8E83A48604578691B
S22400662074841666A960004C74674966822466A93B662087672040674C9C67E8E8B52EF0E5
S224006640057AC8C8C85A60E8E8B52E60456C7365842F66204067209C67205B6080075468E7
S224006660656E845366B430E8E8A50499010060426567696E8565664C4067416761696E8521
S22400668077664C9867556E74696C858266A93B6620876780ED5768696C65858D66A93B66D4
S2240066A02087672040674C9C67526570656174869D66B532209C67B430A5049901004CA3A7
S2240066C060446F82B266A921612087674C40674C6F6F7084C666A9DF662087674C9867A3A8
S2240066E0031AC305F0038303607A6868C8C8C85A602B4C6F6F7085D666A902672087674C89
S2240067009867B530E8E88524186303830338E305C5246A452410D260556E6C6F6F7086F9F9
S22400672066A968684C5F6749012167A3034C44604A012B67A3074C44604865726504346761
S224006740A5044C4460416C6C6F74054067B530E8E81865048504602C014D67B530E8E892AC
S22400676004E604E604A90000920460432C025B67B530E8E8920480EB436F6D70696C652CBF
S224006780087067B530E8E848A920002074676880CE4A6D702C048367B530E8E848A94C006B
S2240067A080E94C64232C049867A9A90020746780AA4C69746572616C87A96720A967A94471
S2240067C06080C45B436861725D86BB6720B46BE8E8200F6480E5B530205F67204067205B1E
S2240067E060B5302051674C59644865616465722C07CC67B4305AA132F6322074677A88D0B9
S224006800F4B530207467A506205F67A50485064CA360496D6D65646961746589F367A980F0
S22400682000A406888888190000990000604E616D653E537472696E670B1E68B430888888BC
S224006840B90000291F00489838E3019530684C4460576F726473053B68A506F01548204406
S22400686060203B682001652022657A8888B9000080E94CEE645365617263682D576F72645A
S2240068804C6973740F5968A97F0038F532852AB53418E52A852CE220B532EBA07F00B12CC0
S2240068A0C2208528B5308007C230A426B98100F04A38E98300A8B97F00452829DF5FD0EC94
S2240068C08426E230A42AC83017B126512CF0F729DFD0D5B12629DF38E941C91A90E880C84E
S2240068E0C230A07F00B12609FF7F3003A901009532A52618698300953480047434E8E8E804
S224006900E8602701876820B46BA506204460208768204766F0016020946C436F6E737461B0
S2240069206E7408066920B46B20F36720A967A944604C9C675661726961626C650825692098
S2240069405169A900004C5F67437265617465063F6920B46B20F367A95D694C8767681A4C8B
S2240069604460446F65733E855169A97C69208767A9681A205F67A944604C8767681AA40606
S224006980990100602E22826A69206D6BA502F009A99C692087674CD6674C226520A2694C2C
S2240069A02265A303A8C8B90000C8C8CACA9430CACA95301875323A83036053228289692053
S2240069C06D6BA502F009A9E9692087674CD667B53048D404204067205B60B5302051672024
S2240069E05964203161203161607AB90100C8C8C8CACA9430CACA95301875323A48604D7571
S224006A0073744265436F6D70696C696E670FBF69A502D00320946C6041626F727422861060
S224006A206A206D6B20106AA9316A20876720D66760B530D00BE8E87A98387901001A486030
S224006A407A5AC8B90000C8C89430CACA95302022654C946C557365723005216A7B4C446072
S224006A600B1863017A4C44604C6174657374065C6AA9060080EA4261736504716AA90000CB
S224006A8080DE5374617465057D6AA9020080D13E496E038A6AA90C0080C6486F6C64507478
S224006AA07207956AA90E0080B7A9080052616E64537461746509A46AA9100080A354656D1B
S224006AC0703005B86AA926008096536F7572636506C56AA508A40A4CB660446563696D615F
S224006AE06C07D36AA90A0085006048657803E46AA9100080F2436F756E7405F06AA1302946
S224006B00FF00F6304C4460436F6D7061726507FD6AB5328526B5368528B534D5309002B5C7
S224006B2030852AE220A0FFFFC8C42AB00AB128D126F0F52A0A800BC220B530D534D0F4A9B0
S224006B400100C2202903003A95364CA7602881116BA9290020706B4CA3605C81516BA50A40
S224006B60850C605061727365055E6B8006A92200204460CACAE220A40C5A88B532C8C40A9C
S224006B80B014D108F00AC920D0F3B108C920B0EBC8840C888002840CC2209838E301953023
S224006BA06818650895326050617273652D4E616D650A6B6B20BD6BA9200020706BE220A481
S224006BC00C88C8C40AB006B108C92190F5840CC220604E756D62657206B46B64246426A591
S224006BE000852A20776C3033A00A00C92600F030C92300F02BA00200C92500F023A0100068
S224006C00C92400F01BC92700D01D20776C300C852420776C304FC92700F04A7432E8E86030
S224006C20842A20776C30F4C92B00F007C92D00D007C62620776C302D38E9300090DDC90AE5
S224006C4000900BE9070029DF00C90A0090CDC52AB0C98528A42AA9000018652488D0FA6588
S224006C6028852480CEA5242426100449FFFF1A9532A9FFFF953060D6303007A132F6322974
S224006C80FF006042796503DB6B4C84E041626F727405896C203860209C6905003F00200D37
S224006CA00A80075175697404946CA9AF041B6402A900038508A0FE0020B660203B65B53008
S224006CC0E8E8850A200165640C20E96CA502D008209C690300206F6B20EE6480D3496E7454
S224006CE065727072657409AA6C20B46BB530F06620B260A506204460208768B530F01D3092
S224006D000EA502F00AE8E820836720A36080DAE8E820886020886020166680CDE8E820B2FD
S224006D206020DB6BB530F016E8E8A502F00820BB6720A36080B320886020886080ABE8E88B
S224006D40202265209C690B00206E6F7420666F756E642020946C4CA3605B81E96C64026024
S224006D605D015D6D860260436F646504646D20826D80EA3B436F6465856E6D4C24663A010E
S224006D807B6D20B46B20F36780DA3B81826D20246680CA44756D70048E6DD630A9000048C8
S224006DA020EE64206B60208B656848200165A132209E65F63268D63030081A890F00D0EAFB
S224006DC080DD4CA3602E53029A6DA93C0020D76420EE6020426020FD65A93E0020D7642024
S224006DE00165B530F00D20446020016120FD65D63010EFE8E84CEE64DBDBDBDBDBDBDBDB33
S22400FFE0DBDBDBDBDBDBDBDBDBDBDBDBDBDBDBDBDBDBDBDBDBDBDBDBDBDBDBDB0060DBDBF2
S804000000FB