S22400600018FBC238A900045BA9C1041BA240004BAB204E666402A9C2048504A95A798506CC
S2240060209CFC038030436F6C6404000080D2427965032C604C84E041626F72740534602028
S2240060402E7820226F05003F00200D0A800751756974043F60A9C1041B640E640C64026467
S22400606016208660E8E8208770200D61A502D00820226F0300206F6B20777080E4526566D5
S224006080696C6C065560A900038510A0FC0020CE7820C170B54285126414A9FFFF95426087
S2240060A0536176652D496E7075740A86607AD410D412D414D40CD40E5A60526573746F72F8
S2240060C0652D496E7075740DAD607A68850E68850C6885146885126885105A604576616C52
S2240060E07561746508CA6020AD60640E209F78851084126414A9FFFF850C200D6120CA6031
S22400610060496E7465727072657409E760203667B542D0034C977820CA7820C86DF00CB4C4
S22400612042C0C0629005C0EA62901CA416D011A8F0203013A502F00F20666B20977880CD40
S224006140E8E820977880C6201B78201B78205A6880BB20CA7820A567B542E8E81AF0271AD2
S224006160F01620A87020226F0B00206E6F7420666F756E6420203F60A402F00520EA6B8004
S2240061800C2008798087A402F00920DA6B2097784C0D61201B78201B784C0D615B810D61EF
S2240061A06402605D01A061860260436F646504A76120306CA5048508603B436F646585B108
S2240061C0614C75683A4E6F4E616D6507C16120B86AB542850880D03A01CE6120B16180C796
S2240061E03B81DB6120756880B744756D7004E461D642A9000048207770205278201171688B
S22400620048208770A144202471F64468D64230081A890F00D0EA80DD4C97785365654C61A0
S2240062207465737409F061A50438E508A8A50820CE7880BC2E53022762A93C002061702078
S224006240337920387820CE71A93E00206170208770B542F00D203A7820467920CE71D64253
S22400626010EFE8E84C7770456E7669726F6E6D656E743F0C3962E8E87442604D61726B65C6
S2240062807206766220306CA98D624C456B7A88888010466F7267657406846220D96DB44290
S2240062A0E8E88888B90000850688B90000291F0085269838E5268504605B49665D849B62D5
S2240062C038A516D007A90000D500E8E86616605B456C73655D86C062A9008045168516605D
S2240062E05B5468656E5D86D8620616605B446566696E65645D89E96220366720C86DF006D3
S224006300A9FFFF9542604CED775B556E646566696E65645D8BF86220F8624CD57352616D8D
S2240063204469736B57726974650C1763B542C98000B016EB0A2900FEA8DAB544AAA9FF014C
S224006340540100FAE8E8744260203F6052616D4469736B526561640B2C63B542C98000B093
S22400636015EB0A2900FEB444DAAAA9FF01540001FAE8E8744260203F60A9FC038526ADFCD2
S22400638003F01DA8B542D90200F0148426B90000D0F19226ADFC039900008CFC03800460DA
S2240063A0203F60B90400102E5A20CA781642A30118690600954420CA78202C63E8E8B54030
S2240063C0D015F64218B5446900029544202C63E8E8B540D0027A607A203F60426C6F636B02
S2240063E0416464085A63801ED404A9060420E76A7AADFC039900008CFC03A9FFFF990200A4
S224006400A90000990400D64210DEE8E860426C6F636B05E663207963B542D90200F03D992E
S2240064200200A900009904005A20CA78164218A301690600954420CA78205A63E8E8B542F1
S224006440D01DF64218B5446900029544205A63E8E8B542D00A7AA900009904009442607ACF
S224006460203F60427566666572061564207963B542990200A90000990400944260456D7053
S22400648074792D427566666572730D6C64ACFC03F011A9FFFF990200A90000990400B90046
S2240064A000D0EF60466C757368058D6420C1644C8D64536176652D427566666572730CACFD
S2240064C064ACFC03F00820A363B90000D0F86055706461746506C164ACFC03F009B90400BA
S2240064E0090080990400604C69737404D864B542850A201564203878A900041875449544EF
S224006500206773207770206669A94000203A7820A870A94000203A782020694C03654C77B8
S224006520704C6F616404EE6420AD60B542850E2015648510A9000485126414640C200D6171
S22400654020CA606054687275042865206778F6442067732066692028652020694C5365607C
S2240065605573657230054B657B4C3A784C6174657374066865A90600805B4C6174657374E2
S2240065805874087565A90800804B42617365048565A90000803F5374617465059165A90254
S2240065A00080323E496E039E65A91400802753637203A965A90A00801C426C6B03B465A95F
S2240065C00E008011536F757263652D496409BF65A90C0080000B1863017A4C3A7852616E4A
S2240065E064537461746509D065A9200080E746535003E965A91A0080DC467346756C6C0618
S224006600F465A91C0080CE4653456D7074792B31090266A91E0080BD54656D70300513664C
S224006620A9260080B0536F75726365062066A510A4124CCE7850537461636B062E66A94291
S224006640004C3A78446563696D616C073E66A90A00850060486578034E66A9100080F242FC
S2240066606C025A66A920004C3A78436F756E74056466A14229FF00F6424C3A78436F6D7078
S224006680617265077266B5448526B5488528B546D5429002B542852AE220A0FFFFC8C42AF0
S2240066A0B00AB128D126F0F52A0A800BC220B542D546D0F4A90100C2202903003A95484CD4
S2240066C09B7828818666A9290020F2664C97785C81C666A50ED005A512851460A514093F26
S2240066E0001A851460506172736505D3668006A92200203A78CACAE220A4145A88B544C835
S224006700C412B014D110F00AC920D0F3B110C920B0EBC884148880028414C2209838E30176
S22400672095426818651095446050617273652D4E616D650AED66203F67A9200020F266E260
S22400674020A41488C8C412B006B110C92190F58414C220603E4E756D626572073667201AF1
S22400676079B5468032A14829FF0038E930009029C90A00900BE9070029DF00C90A009019F1
S224006780C500B01548A500203A78206275207773207D76F648D646D0CC4C1A794E756D6230
S2240067A06572065E6720CA7874467448D400F400002044683079A00A00C92600F015C92393
S2240067C000F010A00200C92500F008A01000C92400D00784002044683055C92B00F007C92F
S2240067E02D00D00783012044683044C92700D017204468303A95482044683012C92700F0F4
S2240068000DD644F6428007D644F642205E67A301F009201A7920AB76201A79204468301600
S224006820C92E00D00A2044681005A9FEFF800CE8E8A900008003A9FFFFE8E8E8E895427ADB
S2240068407A840060D6423007A144F64429FF00604578656375746507A567B542E8E83A48B0
S224006860603E426F6479055A68F6424C3D7745786974846968A960004C0A6BE8E8B540F07A
S224006880057AC8C8C85A60416865616485756820B86AF6424C836B4966828F68A97B6820A5
S2240068A0456B80EB456C7365849C68208F6820677880075468656E84AB68A5048142E8E8A8
S2240068C060426567696E85BA684CB86A416761696E85C9684C7E6B556E74696C85D468A918
S2240068E07B6820456B80ED5768696C6585DF6880AB52657065617486EF68206778207E6B3D
S22400690080B8446F82FA68A9677320456B4CB86A4C6F6F70840769A9206920456B4C7E6B1D
S224006920A3031AC305F0038303607A6868C8C8C85A602B4C6F6F70851769A93F6980DBE837
S224006940E8B540186303830338E305D5406A554010D860556E6C6F6F70863A69A968684C6A
S224006960F56A49015C69A3034C3A784A016669A3074C3A784465666572056F6920306CA916
S2240069803F604C836B446566657221067C69B442B5449901004C9778446566657240068E89
S2240069A069B442B90100954260416374696F6E2D4F6689A16920D96DA502F0E5A9AD002057
S2240069C0D7694CA16B497382B56920D96DA502F0BD20B56BA98D00200A6BF6424CF16A43D7
S2240069E061736584CA694CED77456E644361736587E669A9E8E820F56AE8E8B440800AB98A
S224006A00010048A5049901007AD0F4604F6682F369A91D6A20456B20B86A4C836BB542E859
S224006A20E8D542D007E8E87AC8C8C85A60456E644F6685116AB544A404944420836BB442D6
S224006A40E8E8A50499010060436861727305356A60436861722B05506AF6426043656C6C49
S224006A6004596AA902004C3A7843656C6C7305636A16426043656C6C2B05716A4C3D774158
S224006A806C69676E057C6AE6044604060460416C69676E656407876AF64256421642605535
S224006AA06E7573656406986AA9006038E5044C3A784865726504A86AA5044C3A785061642C
S224006AC003B86AA944001865044C3A784275666665723A07C36A20CF6E8008416C6C6F7477
S224006AE005D66AB542E8E81865048504602C01E36AB542E8E89204E604E604A90000920431
S224006B0060432C02F16AB542E8E8920480EB322C02066B20F16A80D9506F7374706F6E657F
S224006B2088136B20D96DB44288888888B900003035208F6BA9456B800C52656375727365D8
S224006B4087236BA508203A78801C5B436F6D70696C655D89436B20D96D800B436F6D70695F
S224006B606C652C08566BA9200080274272616E63682C07666B80074A6D702C04756BA94CD5
S224006B8000800F203A7880F64C64232C047E6BA9A900200A6B4CF16A50757368412C068FFD
S224006BA06BA9CACA20F56AA995424CF56A506F70412C05A16BA9B54220F56AA9E8E84CF5F8
S224006BC06A4C64642304B56BA9A00020926B80BF4C69746572616C87C86B208F6B80C23231
S224006BE04C69746572616C88DA6B20C86BA9CE784C456B4368617204EA6B203667E8E84C08
S224006C005E725B436861725D86FA6B20FA6B80CA20456BB54220F56A20B86A206778B54231
S224006C2020E76A4CF5724865616465722C070B6C203667B4425AA144F644200A6B7A88D0A5
S224006C40F4B542200A6BA50620F56AA504850685084C9778496D6D65646961746589306CB5
S224006C60A98000A4068888881900009900006054726176657273652D576F72644C697374E1
S224006C8011606C209F784898801048CACA9542A303205E687A8888B90000D0EE7A604E61A2
S224006CA06D653E436F6D70696C650C836CB44288888888B900003006A9666B4C3A78A95A7B
S224006CC06880F84E616D653E496E746572707265740EAD6C604E616D653E537472696E6796
S224006CE00BD46CB442888888B90000291F00489838E3019542684C3A78576F72647305E385
S224006D006CA506801348203A7820E36C20877020A8707A8888B90000D0EB4C777046696E9E
S224006D206404016DB5424820726620C86DD00848A303CACA954268CACA95427A60536561F5
S224006D407263682D576F72644C6973740F246DA97F0038F544852AB54618E52A852CB543D9
S224006D60E220A07F00B12CC2208528B5428007C230A426B98100F04938E98300A8B97F0050
S224006D80452829DF5FD0EC8426E230A42AC83017B126512CF0F729DFD0D5B12629DF38E9DD
S224006DA041C91A90E880C8C230A426B97F0009FF7F3003A9010095449818698300954680C2
S224006DC0047446E8E8E8E860A506203A78204F6DE8E8B5406027014F6D20366720C86DF08C
S224006DE00160203F605B275D83D96D20D96D4CDA6B436F6E7374616E7408EB6D20306C2049
S224006E008F6BA93A784C836B32436F6E7374616E7409FC6D20306C20C86BA9CE784C836BB8
S224006E205661726961626C6508146E20CF6EA900004CF56A325661726961626C65092B6EF2
S224006E40202B6E80E956616C756505406E80AD3256616C7565064D6E80BA546F82586E20D9
S224006E60D96DB442E8E8B9000029FF00C9A000F023C9A900F0034C3F60A502D008B5429945
S224006E800100E8E8605A20B56BA98D00200A6B681A4CF56AA502D00DB542990100B5449983
S224006EA004004C97785AA99F7820456BA98C00200A6BA3011A20F56AA98D00200A6B681832
S224006EC06904004CF56A437265617465065F6E20B161A9D86E4C456B681A4C3A78446F65B9
S224006EE0733E85CF6EA9F76E20456BA9681A20F56AA93A784C456B681AA408990100602EE5
S224006F002882E56EA9290020F2664CA8702E2282046F20EF66A502F006A9226F4C106C4C1C
S224006F20A87020286F4CA870A303A8C8B90000C8C8CACA9442CACA95421875443A830360F4
S224006F40532282126F20EF66A502F006A96A6F4C106CB54248D40420B86A206778B54220E9
S224006F60E76A20F572687A4CCE7820286F604D7573744265436F6D70696C696E678F456F74
S224006F80A502F001604C3F6041626F72742286806F20EF6620806FA99D6F4C106CB542D0B2
S224006FA00BE8E87A98387901001A48607A5AC8B90000C8C89442CACA954220A8704C3F6022
S224006FC0586F6E586F666607916FA904000C4300604F42756604CA6FB542A4048D3E008CE2
S224006FE03C009C38009C3A004CE36A4942756604D86FB542A404200D704CE36A4942756621
S2240070004E6F726D08F26FA90A00A057018D1E008C1C009C18009C1A00604B6579030770FB
S2240070202026704C3A78080BA900005BE2242233E0002BB0052829FF00602880E94B6579FB
S2240070403F042070204F70F003A9FFFF4C3A78AD430029010060456D6974044470B542E841
S224007060E84808DA782263E000FAB0032868602880F04352025D7020226F02000D0A605306
S22400708070616365057770A9200080D55370616365730687708003208770D64210F9E8E861
S2240070A060547970650495708007A144206170F644D64210F54C977841636365707406A8B3
S2240070C070B544487444202670C90D00F038C90800F01CC97F00F017B4428426B444C426E0
S2240070E0B0E4E2209301C220F64420617080D7B444F0D3D644A90800206170208770A908BE
S2240071000020617080C0E8E868602E48657804C170B5432024718008432E486578051171C7
S224007120B542E8E8484A4A4A4A202D7168290F00C90A0090036906006930004C61703C23CB
S224007140022071A94400851860233E02437118A5046518954438A94400E518954260486F6F
S2240071606C64044E71B542E8E8C618A418E2209104C220605369676E046571A92D00E8E82C
S224007180B44030E56023017B71A500203A7820AB75B542C90A00900369060069300080C70E
S2240071A02353028971208971B5441542D0F760552E02A571208C77800644552E03B4712074
S2240071C0437120A571204E7180112E01BF712080778005442E02CE7120E17120A8704C8725
S2240071E070B54208100320AB7620437120A571281006A92D002069714C4E71552E5203D8F4
S22400720071205973208C7720777380162E520201722059732080772077738006442E5203FA
S22400722011722028724CA87020597320E1716838F5429010F00E48A92000206971683AD058
S224007240F54C4E716040212272A14295426021014972B54481424C97784340025272A900D4
S22400726000E220A142C2209542604321025E72B544E2208142C2204C97783240026F72B4D1
S22400728042B902009542B900004C3A783221027F72B442B544990000B5469902004C9B789B
S2240072A02B2102917218B544614281424C97783F01A5722049724CCE714D6F766504B37229
S2240072C0B546D544B02F8009434D6F76653E06C072B542F015DA1875463A48B542187544EA
S2240072E03AA8B5423AFA440000FA4C9B78434D6F766505D172B542F00C3ADAB4465AB4446A
S224007300FA540000FA4C9B7846696C6C04F572B542E8E8B442F014E2208144C22088F00BE2
S224007320983ADAB444BBC8540000FA4C97784572617365050F73A9000080D8426C616E6B18
S224007340053673A9200080CB5244726F70054373688301603E52025073B542E8E87A485A40
S22400736060323E520359737AB54448B542485A4C9778523E0267737A685A4C3A7832523E00
S224007380037773CACACACA7A6895426895445A605240028373A3034C3A7832524003957322
S2240073A0A303A8A3054CCE7857697468696E06A07338B546F544954638B542F5449544E844
S2240073C0E84C5474303C3E03B173B542D05B8049303D02CA73B542D040804E303C02D573B9
S2240073E0B54230458033303E02E073B542302AD038802644303C03EB73B542302A80184469
S224007400303D03F973B5441542D00C801A3D010574B542D544F010E8E87442603C3E02118B
S22400742074B542D544F0F0E8E8A9FFFF9542603C01217438B544F542700F30EB80D93E01C9
S224007440337438B544F54270F130CCD0DA80C8553C024274B544D54290CD80BB553E0254EF
S22400746074B542D54490C080AE443D026174B548D544D006B546D542F011E8E8E8E88097F7
S22400748044553C036E74209D74B0EFE8E8E8E88096443C028674209D7430F080DDB548D5AB
S2240074A044B546F54250034900806055332A039674A90000A02000764476469003187542D5
S2240074C06A88D0F39542764476466038A90000F5469546A90000F5449544A90000F542951E
S2240074E042604E332A03B174B544554208206177E8E820C276CACA20B1742830CE60553373
S2240075002F4D6F6406E874A90000164836463644A030002AB004D5429003F542383648363D
S22400752046364488D0EDE8E89542604D2A2F03077520597320E874207773200775E8E860D7
S224007540554D2A033175A90000A01000764490031875426A88D0F59542764460554E2A03C4
S2240075604675B54248204675E8E820677868CACA95422046752076784CB6774D2A026275DD
S224007580B5425544082061772067782061772046752810034CAB76602A018075204675E899
S2240075A0E860554E2F4D6F64069C75A9000016463644A020002AB004D5429003F542383609
S2240075C046364488D0EF954260554D2F4D6F6406AB7520AB75201B784C6778464D2F4D6FB5
S2240075E06406D275B542554408B542482008766828100BB444F007D6421875449544605351
S2240076004D2F52656D06E475205973B5424820C276A303203A7820617720D275A303430122
S2240076201003205277681008A9000038F544954468602F4D6F64040876205973208077201A
S224007640777380C44D6F64033976203976E8E8602F014A762039764C1B782A2F4D6F64050A
S2240076605476205973208075207773809B2A2F0262762062764C1B784D2B02727620807792
S2240076808005442B027D7618B54875449548B546754295464C9778442D02877620AB768038
S2240076A0E6444E6567617465079C7638A90000F5449544A90000F5429542604441627304C6
S2240076C0AB76B54230E5604C536869667406C276B442F005164488D0FBE8E8605253686952
S2240076E0667406D076B442F005564488D0FBE8E860322A22E57616426044322A23F6761681
S22400770044364260322F02FF76B5420A76426044322F03097720097776446055322F231587
S224007720775642604455322F2421775642764460312B222B77F64260322B023577F64280F2
S224007740F4312D223D77D642604E6567617465064677B54249FFFF1A954260416273035273
S22400776077B54230EF603E3C026177B542EB954260443E53236B77E8E860533E44037777DA
S224007780B5421069805A553E44038077805F4D6178038C7738B542F5447012107EE8E86016
S2240077A04D696E03947738B542F54470EE306CE8E8602B01A67718B544754280602D01B62B
S2240077C07738B544F5428055496E7665727406C177B54249FFFF9542605472756504D177D9
S2240077E0A9FFFF805546616C736505E077A900008048416E6403ED77B5443542801F4F7206
S22400780002F877B54415428014586F72030378B544554280084E6970030F78B542E8E89532
S22400782042605053502D5265736574091B78A2400060447570032E78B542CACA9542603FCD
S224007840447570043878B542D0F0604F766572044678B54480E444726F70245278E8E860C1
S22400786053776170045D78B542B4449442954460526F74036778B446B5449546B5429544DC
S2240078809442605475636B04767820677880AB3244726F70058A78E8E880C2E8E880F8E8EA
S2240078A0E8E8E8B43EB5406032526F74049778E8E820B678CACAB44AB546954AB5429546EE
S2240078C09442603244757004AF78B442B544CACACACA9442954460324F76657205CA78B5F7
S2240078E048B44680E9444D617804DF78209D7410A68015444D696E04EC78209D743098804E
S22400790007324E697004FA78B544B442E8E8E8E880C03253776170050879B542B44695469E
S2240079209442B544B44895489444604465707468051A798624A9400038E5244A4C3A785069
S22400794069636B043379B5420ADA6301AAB544FA954260526F6C6C044679E8E8B540F01403
S22400796086240A6524AAB442B5409542CACAE424D0F6944260DBDBDBDBDBDBDBDBDBDBDB58
S22400FFE0DBDBDBDBDBDBDBDBDBDBDBDBDBDBDBDBDBDBDBDBDBDBDBDBDBDBDBDB0060DBDBF2
S804000000FB