S22400600018FBC238A900045B4BABA25800A997041B20496A6402A998048504A9A96C8506C7
S2240060204C8B6B5053502D5265736574090000A2580060447570032F60B500CACA9500609A
S22400604044726F70043960E8E86053776170044760B500B40294009502604F7665720451AC
S22400606060B50280D6526F74036160B404B5029504B50095029400604E6970036B60B500C3
S224006080E8E89500605475636B047E6020516080AA3244726F70058C60E8E880AAE8E880C0
S2240060A0F832447570049960B400B502CACACACA9502940060324F76657205A860B404B525
S2240060C00680E9325377617005BD60B500B40495049400B502B40695069402604465707434
S2240060E06805CB60860EA9580038E50E4A4C3B605069636B04E460B5000ADA6301AAB502E5
S224006100FA9500603E5202F760B500E8E87A485A60523E0209617A685A4C3B6052400216D8
S22400612061A3034C3B602B012161B500E8E81875009500602D012A61B50238F5004C8060EE
S2240061404E6567617465063861B50049FFFF1A950060416273034961B50030EF60444E654E
S2240061606761746507586138A90000F5029502A90000F50095006044416273046761B500DC
S22400618030E5604D6178037E61B50038F50270163004B5009502E8E8604D696E038961B59D
S2240061A00038F50270EA30EA80EC312B029F61F60060322B02AF61F60080F4312D02B761C6
S2240061C0D60060322A02C061160060322F02C861B5000A76006055322F03D0615600604C82
S2240061E0536869667406DC61B400F005160288D0FBE8E86052536869667406E861B400F0D2
S22400620005560288D0FBE8E860533E4403FD61B500290080F003A9FFFF4C3B60554D2A03B5
S2240062200F62A9000018A01000760290031875006A88D0F576029500604D2A022262B50009
S2240062405502082058612051602058612022622810034C6761602A013E62202262E8E86065
S224006260554D2F4D4F44065A62B502B404940218A0100036022AB004D5009003F5003888A6
S224006280D0F136029504E8E860534D2F52656D066962200961B50048207E61A303203B608C
S2240062A0205861206962A30343011003204961681008A9000038F502950268602F4D4F4488
S2240062C0049262200961200F6220166180C42F01C36220C3624C7E604D6F6403D26220C3CD
S2240062E062E8E860303D02DE62B500D00FA9FFFF950060303C02E962B50030F17400603095
S2240063003E02F862B50030F4D0E380F03D010463B500D502F010E8E87400603C3E0210631E
S224006320B500D502F0F0E8E880C33C012063B50238F500700F30EF80DD3E012E63B502387B
S224006340F50070F130D0D0DE80CC553C023D63B502D50090D180BF553E024F63B500D502B6
S22400636090C480B254727565045C63A9FFFF4C3B6046616C7365056B63A900004C3B604112
S2240063806E64037963B50035024C80604F72028563B50015024C8060586F72039163B500A7
S2240063A055024C8060496E76657274069E63B50049FFFF9500604001AE63A10095006021DC
S2240063C001BA63B50281004C9960434002C363E220A100C22029FF00950060432102CF6338
S2240063E0B502E2208100C2204C9960324002E063B400B902009500B900004C3B6032210287
S224006400F063B400B502990000B5049902004C9D60434D6F7665050264B500F00C3ADAB4C5
S224006420045AB402FA540000FA4C9D6046696C6C041964B402F016B500E2208104C2209838
S2240064403AF00A3ADAB404BBC8540000FA4C9D604B6579033364205C644C3B60080BA900D7
S224006460005BE2242233E0002BB0052829FF00602880E94B65793F045664208564F003A995
S224006480FFFF4C3B60AD430029010060456D6974047A64B500E8E848DA08782263E000B0EB
S2240064A00428FA686028FA80EF4352029364A90D00209764A90A0080DE537061636505AE49
S2240064C064A9200080D153706163657306C164D600300520C16480F7E8E860547970650412
S2240064E0CF648007A102209764F602D60010F54C996041636365707406E264B502487402F6
S224006500205C64C90D00F038C90800F01CC97F00F017B4008410B402C410B0E4E220930170
S224006520C220F60220976480D7B402F0D3D602A9080020976420C164A9080020976480C09C
S224006540E8E868602E48657804FB64B501205E658008432E486578054B65B500E8E8484A65
S2240065604A4A4A20676568290F00C90A0090036906006930004C9764552E025A65B500E816
S224006580E82087654CC164850EF40000A90000060EA010002AC5009002E500260E88D0F4B7
S2240065A0C90A00900369060069300048A50ED0DC800320976468D0FA602E017D65B50010BB
S2240065C009204961A92D0020976480B14578656375746507BD65B500E8E83A486045786938
S2240065E07484D665A960004C4067496682E465A9FB65205367200C674C6867B500F0057A38
S224006600C8C8C85AE8E860B500E8E8A860456C736584EF65200C6720686720516080075477
S22400662068656E841466B400E8E8A50499010060426567696E8526664C0C67416761696E60
S2240066408538664C6467556E74696C854366A9FB6520536780ED5768696C65854E66A9FB9B
S22400666065205367200C674C6867526570656174865E66B502206867B400A5049901004C94
S2240066809960446F827366A990662053674C0C677AB50248B500485A4C99604C6F6F708483
S2240066A08766A9AB662053674C6467A3031AC305F0038303607A6868C8C8C85A602B4C6F9A
S2240066C06F7085A266A9CE662053674C6467B500E8E8850E186303830338E305C50E6A45BD
S2240066E00E10D260556E6C6F6F7086C566A968684C2B674901ED66A3034C3B604A01F766EE
S224006700A3074C3B6048657265040067A5044C3B60416C6C6F74050C67B500E8E8186504EA
S2240067208504602C011967B500E8E89204E604E604A90000920460432C022767B500E8E8AC
S224006740920480EB436F6D70696C652C083C67B500E8E848A920002040676880CE4A6D7059
S2240067602C044F67B500E8E848A94C0080E94C6461232C056467A9A90020406780A94C69DC
S224006780746572616C877667207667A93B6080C3B500202B67200C67205160B500201D67D0
S2240067A04C19644865616465722C078867B4005AA102F6022040677A88D0F4B500204067EE
S2240067C0A506202B67A50485064C99604E616D653E537472696E670BAD67B400888888B984
S2240067E00000291F00489838E3019500684C3B60576F72647305DA67A506F0174820C164D8
S224006800A301203B6020DA6720E2647A8888B9000080E74CAE645365617263682D576F728A
S224006820644C6973740FF867A97F0038F5028514B50418E5148516E220B502EBA07F00B11C
S22400684016C2208512B5008007C230A410B98100F04A38E98300A8B97F00451229DF5FD03C
S224006860EC8410E230A414C83017B1105116F0F729DFD0D5B11029DF38E941C91A90E880F8
S224006880C8C230A07F00B11009FF7F3003A901009502A51018698300950480047404E8E840
S2240068A0E8E8602701286820D36AA506203B60202868200766F0016020756B436F6E737493
S2240068C0616E7408A76820D36A20AD67207667A93B604C68675661726961626C6508C66810
S2240068E020F268A900004C2B6743726561746506E06820D36A20AD67A9FE684C5367681AC8
S2240069004C3B60446F65733E85F268A91D69205367A9681A202B67A93B604C5367681AA48D
S22400692006990100602E22820B69208C6AA502F009A93D692053674C90674CE2642043698C
S2240069404CE264A303A8C8B90000C8C8CACA9400CACA95001875023A8303605322822A69B7
S224006960208C6AA502F009A98A692053674C9067B50048D404200C67205160B500201D6711
S224006980201964201661201661607AB90100C8C8C8CACA9400CACA95001875023A48604D2C
S2240069A07573744265436F6D70696C696E670F6069A502D00320756B6041626F72742286DB
S2240069C0B169208C6A20B169A9D26920536720906760B500D00BE8E87A98387901001A488D
S2240069E0607A5AC8B90000C8C89400CACA950020E2644C756B0B1863017A4C3B604C6174F5
S224006A0065737406C269A9060080EA4261736504066AA9000080DE537461746505126AA9BA
S224006A20020080D13E496E031F6AA90C0080C6536F75726365062A6AA508A40A4CAC604480
S224006A406563696D616C07386AA90A0085006048657803496AA9100080F2436F756E740571
S224006A60556AA10029FF00F6004C3B602881626AA92900208F6A4C99605C81706AA50A851C
S224006A800C605061727365057D6A8006A92200203B60CACAE220A40C5A88B502C8C40AB06D
S224006AA014D108F00AC920D0F3B108C920B0EBC8840C888002840CC2209838E3019500687C
S224006AC018650895026050617273652D4E616D650A8A6A20DC6AA92000208F6AE220A40C94
S224006AE088C8C40AB006B108C92190F5840CC220604E756D62657206D36A640E64102058B9
S224006B006B3050C92B00F007C92D00D007C61020586B302D38E930009039C90A00900BE946
S224006B20070029DF00C90A009029C500B0258512A400A9000018650E88D0FA6512850E80D0
S224006B40CEA50E2410100449FFFF1A9502A9FFFF9500607402E8E860D6003007A102F60285
S224006B6029FF006042796503FA6A4C84E041626F7274056A6B202F60203D6905003F0020A6
S224006B800D0A80075175697404756BA997041B6402A900038508A0FE0020AC6020FB64B5CF
S224006BA000E8E8850A20C164640C20CA6BA502D008203D690300206F6B20AE6480D3496EE9
S224006BC074657270726574098B6B20D36AB500F06620A860A506203B60202868B500F01D43
S224006BE0300EA502F00AE8E8204F6720996080DAE8E8207E60207E6020D66580CDE8E82034
S224006C00A86020FA6AB500F016E8E8A502F00820886720996080B3207E60207E6080ABE84F
S224006C20E820E264203D690B00206E6F7420666F756E642020756B4C99605B81CA6B6402A7
S224006C40605D013E6C860260436F646504456C20646C4C3E6C3B436F6465854F6C4CE4653E
S224006C603A015D6C20D36A20AD674C456C3B81646C20E4654C3E6C44756D7004716CD60045
S224006C8020AE64206160204B65A010005A20C164A102F602D600205E657A88D0EFB50010E3
S224006CA0DF4C99602E53027E6CA93C0020976420E46020396020BD65A93E0020976420C1FC
S224006CC064B500F00D203B6020F76020BD65D60010EFE8E84CAE64DBDBDBDBDBDBDBDBDB6F
S22400FFE0DBDBDBDBDBDBDBDBDBDBDBDBDBDBDBDBDBDBDBDBDBDBDBDBDBDBDBDB0060DBDBF2
S804000000FB