S22400600018FBC238A900045BA9AF041BA240004BAB20DD6A6402A9B0048504A9806D850643
S2240060204C656C436F6C6404000080D45053502D5265736574092A60A24000604475700340
S2240060403860B530CACA95306044726F70044260E8E86053776170045060B530B4329430BC
S2240060609532604F766572045A60B53280D6526F74036A60B434B5329534B5309532943053
S224006080604E6970037460B530E8E89530605475636B048760205A6080AA3244726F700571
S2240060A09560E8E880AAE8E880F83244757004A260B430B532CACACACA9532943060324FE4
S2240060C076657205B160B434B53680E9325377617005C660B530B43495349430B532B436F9
S2240060E09536943260446570746805D4608624A9400038E5244A4C44605069636B04ED6096
S224006100B5300ADA6301AAB532FA9530603E52020061B530E8E87A485A60323E5203126141
S2240061207AB53248B530485A4CA260523E0220617A685A4C446032523E033061CACACACA1F
S2240061407A6895306895325A605240023C61A3034C44602B014E6118B53275304C89602D02
S22400616001576138B532F5304C89604E6567617465066361B53049FFFF1A95306041627349
S224006180037461B53030EF60444E656761746507836138A90000F5329532A90000F5309509
S2240061A0306044416273049261B53030E5604D617803A961B53038F53270163004B53095F4
S2240061C032E8E8604D696E03B461B53038F53270EA30EA80EC312B02CA61F63060322B028A
S2240061E0DA61F63080F4312D02E261D63060322A02EB61163060322F02F361B5300A763020
S2240062006055322F03FB615630604C5368696674060762B430F005163288D0FBE8E860526F
S2240062205368696674061362B430F005563288D0FBE8E860533E44032862B530290080F01C
S22400624003A9FFFF4C4460554D2A033A62A9000018A01000763290031875306A88D0F5769E
S224006260329530604D2A024D62B530553208208361205A60208361204D622810034C9261FB
S224006280602A016962204D62E8E860554E2F4D6F64068562A9000016343632A020002AB0D0
S2240062A004D5309003F530383634363288D0EF953060554D2F4D6F640694622094622087F8
S2240062C0604C5A60534D2F52656D06BB62201261B5304820A961A30320446020836120BB0A
S2240062E062A30343011003207461681008A9000038F532953268602F4D4F4404CD622012BA
S22400630061203A6220306180C42F01FE6220FE624C87604D6F64030D6320FE62E8E86030B0
S2240063203D021963B530D00FA9FFFF953060303C022463B53030F1743060303E023363B553
S2240063403030F4D0E380F03D013F63B530D532F010E8E87430603C3E024B63B530D532F01B
S224006360F0E8E880C33C015B6338B532F530700F30EF80DD3E01696338B532F53070F130FB
S224006380D0D0DE80CC553C027863B532D53090D180BF553E028A63B530D53290C480B254EC
S2240063A0727565049763A9FFFF4C446046616C736505A663A900004C4460416E6403B46338
S2240063C0B53235304C89604F7202C063B53215304C8960586F7203CC63B53255304C8960E4
S2240063E0496E7665727406D963B53049FFFF9530604001E963A1309530602101F563B532A9
S22400640081304CA260434002FE63E220A130C22029FF009530604321020A64B532E2208152
S22400642030C2204CA2603240021B64B430B902009530B900004C44603221022B64B430B57A
S22400644032990000B5349902004CA660434D6F7665053D64B530F00C3ADAB4345AB432FAFF
S224006460540000FA4CA66046696C6C045464B432F016B530E2208134C220983AF00A3ADAEA
S224006480B434BBC8540000FA4CA660586F6E586F6666076E64A904000C4300604B657903C3
S2240064A0956420A8644C4460080BA900005BE2242233E0002BB0052829FF00602880E94B04
S2240064C065793F04A26420D164F003A9FFFF4C4460AD430029010060456D697404C664B5C5
S2240064E030E8E848DA08782263E000B00428FA686028FA80EF435202DF64A90D0020E3646A
S224006500A90A0080DE537061636505FA64A9200080D1537061636573060D65D630300520CA
S2240065200D6580F7E8E86054797065041B658007A13220E364F632D63010F54CA260416331
S22400654063657074062E65B53248743220A864C90D00F038C90800F01CC97F00F017B430E2
S2240065608426B432C426B0E4E2209301C220F63220E36480D7B432F0D3D632A9080020E345
S22400658064200D65A9080020E36480C0E8E868602E486578044765B53120AA658008432EFF
S2240065A0486578059765B530E8E8484A4A4A4A20B36568290F00C90A009003690600693045
S2240065C0004CE364552E02A665B530E8E820D3654C0D658524F40000A900000624A01000A8
S2240065E02AC5009002E500262488D0F4C90A00900369060069300048A524D0DC800320E3E9
S2240066006468D0FA602E01C965B5301009207461A92D0020E36480B14578656375746507E7
S2240066200966B530E8E83A486045786974842266A960004C80674966823066A9476620939D
S22400664067204C674CA867E8E8B52EF0057AC8C8C85A60E8E8B52E60456C7365843B66208B
S2240066604C6720A867205A6080075468656E845F66B430E8E8A50499010060426567696EBE
S2240066808571664C4C67416761696E8583664CA467556E74696C858E66A947662093678080
S2240066A0ED5768696C65859966A94766209367204C674CA86752657065617486A966B532F0
S2240066C020A867B430A5049901004CA260446F82BE66A920612093674C4C674C6F6F708457
S2240066E0D266A9EB662093674CA467A3031AC305F0038303607A6868C8C8C85A602B4C6F4F
S2240067006F7085E266A90E672093674CA467B530E8E88524186303830338E305C5246A451F
S2240067202410D260556E6C6F6F70860567A968684C6B6749012D67A3034C44604A0137678B
S224006740A3074C446048657265044067A5044C4460416C6C6F74054C67B530E8E8186504E8
S2240067608504602C015967B530E8E89204E604E604A90000920460432C026767B530E8E88C
S224006780920480EB436F6D70696C652C087C67B530E8E848A920002080676880CE4A6D7069
S2240067A02C048F67B530E8E848A94C0080E94C6461232C05A467A9A90020806780A94C69AC
S2240067C0746572616C87B66720B667A9446080C3B530206B67204C67205A60B530205D67DE
S2240067E04C54644865616465722C07C867B4305AA132F6322080677A88D0F4B530208067F3
S224006800A506206B67A50485064CA260496D6D65646961746589ED67A98000A4068888887D
S224006820190000990000604E616D653E537472696E670B1868B430888888B90000291F0003
S224006840489838E3019530684C4460576F726473053568A506F01748200D65A30120446075
S224006860203568202E657A8888B9000080E74CFA645365617263682D576F72644C69737494
S2240068800F5368A97F0038F532852AB53418E52A852CE220B532EBA07F00B12CC2208528D3
S2240068A0B5308007C230A426B98100F04A38E98300A8B97F00452829DF5FD0EC8426E23067
S2240068C0A42AC83017B126512CF0F729DFD0D5B12629DF38E941C91A90E880C8C230A07FF9
S2240068E000B12609FF7F3003A901009532A52618698300953480047434E8E8E8E8602701A5
S224006900836820AD6BA506204460208368205366F00160204F6C436F6E7374616E7408027C
S2240069206920AD6B20ED6720B667A944604CA8675661726961626C65082169204D69A90021
S224006940004C6B67437265617465063B6920AD6B20ED67A959694C9367681A4C4460446F94
S22400696065733E854D69A97869209367A9681A206B67A944604C9367681AA4069901006047
S2240069802E2282666920666BA502F009A998692093674CD0674C2E65209E694C2E65A303EE
S2240069A0A8C8B90000C8C8CACA9430CACA95301875323A830360532282856920666BA5020C
S2240069C0F009A9E5692093674CD067B53048D404204C67205A60B530205D67205464203082
S2240069E061203061607AB90100C8C8C8CACA9430CACA95301875323A48604D7573744265F2
S224006A00436F6D70696C696E670FBB69A502D003204F6C6041626F727422860C6A20666BE0
S224006A20200C6AA92D6A20936720D06760B530D00BE8E87A98387901001A48607A5AC8B93F
S224006A400000C8C89430CACA9530202E654C4F6C5573657230051D6A7B4C44600B1863017D
S224006A607A4C44604C617465737406586AA9060080EA42617365046D6AA9000080DE537435
S224006A8061746505796AA9020080D13E496E03866AA90C0080C6486F6C6450747207916A31
S224006AA0A90E0080B752616E64537461746509A06AA9100080A654656D703005B16AA926B6
S224006AC0008099536F7572636506BE6AA508A40A4CB560446563696D616C07CC6AA90A009E
S224006AE085006048657803DD6AA9100080F2436F756E7405E96AA13029FF00F6304C4460A2
S224006B00436F6D7061726507F66AB5328526B5368528B534D5309002B530852AE220A0FF63
S224006B20FFC8C42AB00AB128D126F0F52A0A800BC220B530D534D0F4A90100C22029030021
S224006B403A95364CA66028810A6BA9290020696B4CA2605C814A6BA50A850C6050617273DF
S224006B606505576B8006A92200204460CACAE220A40C5A88B532C8C40AB014D108F00AC9CA
S224006B8020D0F3B108C920B0EBC8840C888002840CC2209838E3019530681865089532606F
S224006BA050617273652D4E616D650A646B20B66BA9200020696BE220A40C88C8C40AB006CA
S224006BC0B108C92190F5840CC220604E756D62657206AD6B6424642620326C3050C92B00EB
S224006BE0F007C92D00D007C62620326C302D38E930009039C90A00900BE9070029DF00C97C
S224006C000A009029C500B0258528A400A9000018652488D0FA6528852480CEA5242426107E
S224006C200449FFFF1A9532A9FFFF9530607432E8E860D6303007A132F63229FF0060427906
S224006C406503D46B4C84E041626F727405446C20386020986905003F00200D0A800751758A
S224006C606974044F6CA9AF041B6402A900038508A0FE0020B560204765B530E8E8850A205A
S224006C800D65640C20A46CA502D0082098690300206F6B20FA6480D3496E74657270726526
S224006CA07409656C20AD6BB530F06620B160A506204460208368B530F01D300EA502F00A92
S224006CC0E8E8208F6720A26080DAE8E820876020876020226680CDE8E820B16020D46BB565
S224006CE030F016E8E8A502F00820C86720A26080B320876020876080ABE8E8202E652098D2
S224006D00690B00206E6F7420666F756E6420204F6C4CA2605B81A46C6402605D01186D86E9
S224006D200260436F6465041F6D203D6D80EA3B436F646585296D4C30663A01366D20AD6BE4
S224006D4020ED6780DA3B813D6D20306680CA44756D7004496DD63020FA64206A6020976520
S224006D60A010005A200D65A132F632D63020AA657A88D0EFB53010DF4CA2602E5302556D1A
S224006D80A93C0020E36420ED60204260200966A93E0020E364200D65B530F00D204460203E
S224006DA00061200966D63010EFE8E84CFA64DBDBDBDBDBDBDBDBDBDBDBDBDBDBDBDBDBDBF9
S22400FFE0DBDBDBDBDBDBDBDBDBDBDBDBDBDBDBDBDBDBDBDBDBDBDBDBDBDBDBDB0060DBDBF2
S804000000FB