S22400600018FBC238A900045B4BABA25800A997041B20406A6402A998048504A9816C8506F8
S2240060204C816B5053502D5265736574090000A2580060447570032F60B500CACA950060A4
S22400604044726F70043960E8E86053776170044760B500B40294009502604F7665720451AC
S22400606060B50280D6526F74036160B404B5029504B50095029400604E6970036B60B500C3
S224006080E8E89500605475636B047E6020516080AA3244726F70058C60E8E880AAE8E880C0
S2240060A0F832447570049960B400B502CACACACA9502940060324F76657205A860B404B525
S2240060C00680E9325377617005BD60B500B40495049400B502B40695069402604465707434
S2240060E06805CB60860EA9580038E50E4A4C3B605069636B04E460B5000ADA6301AAB502E5
S224006100FA9500603E5202F760B500E8E87A485A60523E0209617A685A4C3B6052400216D8
S22400612061A3034C3B602B012161B500E8E81875009500602D012A61B50238F5004C8060EE
S2240061404E6567617465063861B50049FFFF1A950060416273034961B50030EF60444E654E
S2240061606761746507586138A90000F5029502A90000F50095006044416273046761B500DC
S22400618030E5604D6178037E61B50038F50270163004B5009502E8E8604D696E038961B59D
S2240061A00038F50070EA30EA80EC312B029F61F60060322B02AF61F60080F4312D02B761C8
S2240061C0D60060322A02C061160060322F02C861B5000A76006055322F03D0615600604C82
S2240061E0536869667406DC61B400F005160288D0FBE8E86052536869667406E861B400F0D2
S22400620005560288D0FBE8E860533E4403FD61B500290080F003A9FFFF4C3B60554D2A03B5
S2240062200F62A9000018A01000760290031875006A88D0F576029500604D2A022262B50009
S2240062405502082058612051602058612022622810034C6761602A013E62202262E8E86065
S224006260554D2F4D4F44065A62B502B404940218A0100036022AB004D5009003F5003888A6
S224006280D0F136029504E8E860534D2F52656D066962200961B50048207E61A303203B608C
S2240062A0205861206962A30343011003204961681008A9000038F502950268602F4D4F4488
S2240062C0049262200961200F6220166180C42F01C36220C3624C7E604D6F6403D26220C3CD
S2240062E062E8E860303D02DE62B500D00FA9FFFF950060303C02E962B50030F17400603095
S2240063003E02F862B50030F4D0E380F03D010463B500D500F010E8E87400603C3E02106320
S224006320B500D500F0F0E8E880C33C012063B50238F500700F30EF80DD3E012E63B500387F
S224006340F50270F130E080CE553C023D63B502D50090D380C1553E024D63B500D50290C6F8
S22400636080B454727565045A63A9FFFF4C3B6046616C7365056963A900004C3B60416E6496
S224006380037763B50035029502E8E8604F72028363B500150280F0586F72039163B5005549
S2240063A00280E4496E76657274069D63B50049FFFF9500604001AC63A1009500602101B843
S2240063C063B50281004C9960434002C163E220A100C22029FF00950060432102CD63B50240
S2240063E0E2208100C2204C9960324002DE63B400B902009500B900004C3B60322102EE63EF
S224006400B400B502990000B5009902004C9D604D6F7665040064B500F00C3ADAB4045AB450
S22400642002FA540000FA4C9D6046696C6C041664B402F016B500E2208104C220983AF00A19
S2240064403ADAB404BBC8540000FA4C9D604B65790330642059644C3B60080BA900005BE2D4
S224006460242233E0002BB0052829FF00602880E94B65793F045364208264F003A9FFFF4C8E
S2240064803B60AD430029010060456D6974047764B500E8E848DA08782263E000B00428FA12
S2240064A0686028FA80EF4352029064A90D00209464A90A0080DE537061636505AB64A9204B
S2240064C00080D153706163657306BE64D600300520BE6480F7E8E8605479706504CC648095
S2240064E007A102209464F602D60010F54C996041636365707406DF64B502487402205964D2
S224006500C90D00F038C90800F01CC97F00F017B4008410B402C410B0E4E2209301C220F678
S2240065200220946480D7B402F0D3D602A9080020946420BE64A9080020946480C0E8E86848
S224006540602E48657804F864B501205B658008432E486578054865B500E8E8484A4A4A4AC8
S22400656020646568290F00C90A0090036906006930004C9464552E025765B500E8E8208471
S224006580654CBE64850EF40000A90000060EA010002AC5009002E500260E88D0F4C90A0076
S2240065A0900369060069300048A50ED0DC800320946468D0FA602E017A65B5001009204922
S2240065C061A92D0020946480B14578656375746507BA65B500E8E83A4860B500E8E8A86049
S2240065E0496682D365A9F165204D672006674C6267B500F0057AC8C8C85AE8E860456C738E
S2240066006584E56520066720626720516080075468656E840466B400E8E8A50499010060D0
S224006620426567696E8516664C0667416761696E8528664C5E67556E74696C853366A9F1EE
S22400664065204D6780ED5768696C65853E66A9F165204D672006674C626752657065617497
S224006660864E66B502206267B400A5049901004C9960446F826366A98066204D674C0667E5
S2240066807AB50248B500485A4C99604C6F6F70847766A99B66204D674C5E67A3031AC305CE
S2240066A0F0038303607A6868C8C8C85A602B4C6F6F70859266A9BE66204D674C5E67B500F7
S2240066C0E8E8A818630383033898300CA303E305500349FFFF10CE60A305E30380F2556E04
S2240066E06C6F6F7086B566A968684C25674901E766A3034C3B604A01F166A3074C3B60484A
S22400670065726504FA66A5044C3B60416C6C6F74050667B500E8E81865048504602C0113A7
S22400672067B500E8E89204E604E604A90000920460432C022167B500E8E8920480EB436F2E
S2240067406D70696C652C083667B500E8E848A92000203A676880CE4A6D702C044967B50083
S224006760E8E848A94C0080E945786974845E67A9600080C64C6461232C056F67A9A90020BF
S2240067803A67809D4C69746572616C877C67207C67A93B6080B7B500202567200667205122
S2240067A060B5002017674C16644865616465722C078E67B4005AA102F602203A677A88D0AE
S2240067C0F4B500203A67A506202567A50485064C99604E616D653E537472696E670BB3671F
S2240067E0B400888888B90000291F00489838E3019500684C3B60576F72647305E067A50661
S224006800F0174820BE64A301203B6020E06720DF647A8888B9000080E74CAB645365617229
S22400682063682D576F72644C6973740FFE67A97F0038F5028514B50418E5148516E220B5A3
S22400684002EBA07F00B116C2208512B5008007C230A410B98100F04A38E98300A8B97F000D
S224006860451229DF5FD0EC8410E230A414C83017B1105116F0F729DFD0D5B11029DF38E986
S22400688041C91A90E880C8C230A07F00B11009FF7F3003A901009502A510186983009504F0
S2240068A080047404E8E8E8E86027012E6820CA6AA506203B60202E6820DA65F00160206D6C
S2240068C06B436F6E7374616E7408AD6820CA6A20B367207C67A93B604C6267566172696104
S2240068E0626C6508CC6820F868A900004C256743726561746506E66820CA6A20B367A90440
S224006900694C4D67681A4C3B60446F65733E85F868206D6B60681A4C3B602E2282116920C5
S224006920836AA502F009A93269204D674C96674CDF642038694CDF64A303A8C8B90000C8EE
S224006940C8CACA9400CACA95001875023A8303605322821F6920836AA502F009A97F69208D
S2240069604D674C9667B50048D404200667205160B500201767201664201661201661607AED
S224006980B90100C8C8C8CACA9400CACA95001875023A48604D7573744265436F6D70696C6A
S2240069A0696E670F5569A502D003206D6B6041626F72742286A66920836A20A669A9C76931
S2240069C0204D6720966760B500D00BE8E87A9818790100C85A607A5AC8B90000C8C8CACA62
S2240069E09400CACA950020DF644C6D6B0B1863017A4C3B604C617465737406B769A9060024
S224006A0080EA4261736504FD69A9000080DE537461746505096AA9020080D13E496E031698
S224006A206AA90C0080C6536F7572636506216AA508A40A4CAC60446563696D616C072F6AE8
S224006A40A90A0085006048657803406AA9100080F2436F756E74054C6AA10029FF00F60019
S224006A604C3B602881596AA9290020866A4C99605C81676AA50A850C6050617273650574D5
S224006A806A8006A92200203B60CACAE220A40C5A88B502C8C40AB014D108F00AC920D0F3C3
S224006AA0B108C920B0EBC8840C888002840CC2209838E30195006818650895026050617270
S224006AC073652D4E616D650A816A20D36AA9200020866AE220A40C88C8C40AB006B108C9F8
S224006AE02190F5840CC220604E756D62657206CA6A640E6410204F6B3050C92B00F007C982
S224006B002D00D007C610204F6B302D38E930009039C90A00900BE9070029DF00C90A00907C
S224006B2029C500B0258512A400A9000018650E88D0FA6512850E80CEA50E2410100449FF31
S224006B40FF1A9502A9FFFF9500607402E8E860D6003007A102F60229FF006042796503F1FA
S224006B606A5C84E00041626F727405616B202F6020326903003F0020800751756974046DB6
S224006B806BA997041B6402A900038508A0FE0020AC6020F864B500E8E8850A640C20BC6B76
S224006BA0A502D0E32032690500206F6B0D0A80D7496E7465727072657409816B20CA6AB593
S224006BC000F06620A860A506203B60202E68B500F01D300EA502F00AE8E8204967209960BC
S224006BE080DAE8E8207E60207E6020D36580CDE8E820A86020F16AB500F016E8E8A502F030
S224006C0008208E6720996080B3207E60207E6080ABE8E820DF642032690B00206E6F742055
S224006C20666F756E6420206D6B4C99605B81BC6B6402605D01306C8602603A01376C20CA63
S224006C406A20B3674C376C3B813E6C206F674C306C44756D70044B6C20AB6420616020488F
S224006C6065A010005A20BE64A102F602D600205B657A88D0EFB50010DF4C99602E53025888
S224006C806CA93C0020946420E46020396020BA65A93E0020946420BE64B500F00D203B607C
S224006CA020F76020BA65D60010EFE8E84CAB64DBDBDBDBDBDBDBDBDBDBDBDBDBDBDBDBDB8E
S22400FFE0DBDBDBDBDBDBDBDBDBDBDBDBDBDBDBDBDBDBDBDBDBDBDBDBDBDBDBDB0060DBDBF2
S804000000FB