S22400600018FBC238A900045B4BABA25800A997041B20536A6402A998048504A99A6C8506CC
S2240060204C956B5053502D5265736574090000A2580060447570032F60B500CACA95006090
S22400604044726F70043960E8E86053776170044760B500B40294009502604F7665720451AC
S22400606060B50280D6526F74036160B404B5029504B50095029400604E6970036B60B500C3
S224006080E8E89500605475636B047E6020516080AA3244726F70058C60E8E880AAE8E880C0
S2240060A0F832447570049960B400B502CACACACA9502940060324F76657205A860B404B525
S2240060C00680E9325377617005BD60B500B40495049400B502B40695069402604465707434
S2240060E06805CB60860EA9580038E50E4A4C3B605069636B04E460B5000ADA6301AAB502E5
S224006100FA9500603E5202F760B500E8E87A485A60523E0209617A685A4C3B6052400216D8
S22400612061A3034C3B602B012161B500E8E81875009500602D012A61B50238F5004C8060EE
S2240061404E6567617465063861B50049FFFF1A950060416273034961B50030EF60444E654E
S2240061606761746507586138A90000F5029502A90000F50095006044416273046761B500DC
S22400618030E5604D6178037E61B50038F50270163004B5009502E8E8604D696E038961B59D
S2240061A00038F50070EA30EA80EC312B029F61F60060322B02AF61F60080F4312D02B761C8
S2240061C0D60060322A02C061160060322F02C861B5000A76006055322F03D0615600604C82
S2240061E0536869667406DC61B400F005160288D0FBE8E86052536869667406E861B400F0D2
S22400620005560288D0FBE8E860533E4403FD61B500290080F003A9FFFF4C3B60554D2A03B5
S2240062200F62A9000018A01000760290031875006A88D0F576029500604D2A022262B50009
S2240062405502082058612051602058612022622810034C6761602A013E62202262E8E86065
S224006260554D2F4D4F44065A62B502B404940218A0100036022AB004D5009003F5003888A6
S224006280D0F136029504E8E860534D2F52656D066962200961B50048207E61A303203B608C
S2240062A0205861206962A30343011003204961681008A9000038F502950268602F4D4F4488
S2240062C0049262200961200F6220166180C42F01C36220C3624C7E604D6F6403D26220C3CD
S2240062E062E8E860303D02DE62B500D00FA9FFFF950060303C02E962B50030F17400603095
S2240063003E02F862B50030F4D0E380F03D010463B500D500F010E8E87400603C3E02106320
S224006320B500D500F0F0E8E880C33C012063B50238F500700F30EF80DD3E012E63B500387F
S224006340F50270F130E080CE553C023D63B502D50090D380C1553E024D63B500D50290C6F8
S22400636080B454727565045A63A9FFFF4C3B6046616C7365056963A900004C3B60416E6496
S224006380037763B500350295024C80604F72028363B50015024C8060586F72039163B500E6
S2240063A055024C8060496E76657274069E63B50049FFFF9500604001AE63A10095006021DC
S2240063C001BA63B50281004C9960434002C363E220A100C22029FF00950060432102CF6338
S2240063E0B502E2208100C2204C9960324002E063B400B902009500B900004C3B6032210287
S224006400F063B400B502990000B5009902004C9D60434D6F7665050264B500F00C3ADAB4C9
S224006420045AB402FA540000FA4C9D6046696C6C041964B402F016B500E2208104C2209838
S2240064403AF00A3ADAB404BBC8540000FA4C9D604B6579033364205C644C3B60080BA900D7
S224006460005BE2242233E0002BB0052829FF00602880E94B65793F045664208564F003A995
S224006480FFFF4C3B60AD430029010060456D6974047A64B500E8E848DA08782263E000B0EB
S2240064A00428FA686028FA80EF4352029364A90D00209764A90A0080DE537061636505AE49
S2240064C064A9200080D153706163657306C164D600300520C16480F7E8E860547970650412
S2240064E0CF648007A102209764F602D60010F54C996041636365707406E264B502487402F6
S224006500205C64C90D00F038C90800F01CC97F00F017B4008410B402C410B0E4E220930170
S224006520C220F60220976480D7B402F0D3D602A9080020976420C164A9080020976480C09C
S224006540E8E868602E48657804FB64B501205E658008432E486578054B65B500E8E8484A65
S2240065604A4A4A20676568290F00C90A0090036906006930004C9764552E025A65B500E816
S224006580E82087654CC164850EF40000A90000060EA010002AC5009002E500260E88D0F4B7
S2240065A0C90A00900369060069300048A50ED0DC800320976468D0FA602E017D65B50010BB
S2240065C009204961A92D0020976480B14578656375746507BD65B500E8E83A486045786938
S2240065E07484D665A960004C4A67496682E465A9FB65205D672016674C7267B500F0057A10
S224006600C8C8C85AE8E860B500E8E8A860456C736584EF6520166720726720516080075463
S22400662068656E841466B400E8E8A50499010060426567696E8526664C1667416761696E56
S2240066408538664C6E67556E74696C854366A9FB65205D6780ED5768696C65854E66A9FB87
S22400666065205D672016674C7267526570656174865E66B502207267B400A5049901004C6C
S2240066809960446F827366A99066205D674C16677AB50248B500485A4C99604C6F6F70846F
S2240066A08766A9AB66205D674C6E67A3031AC305F0038303607A6868C8C8C85A602B4C6F86
S2240066C06F7085A266A9CE66205D674C6E67B500E8E8A818630383033898300CA303E3059C
S2240066E0500349FFFF10CE60A305E30380F2556E6C6F6F7086C566A968684C35674901F7ED
S22400670066A3034C3B604A010167A3074C3B6048657265040A67A5044C3B60416C6C6F74B8
S224006720051667B500E8E81865048504602C012367B500E8E89204E604E604A900009204FE
S22400674060432C023167B500E8E8920480EB436F6D70696C652C084667B500E8E848A92005
S22400676000204A676880CE4A6D702C045967B500E8E848A94C0080E94C6461232C056E6711
S224006780A9A900204A6780A94C69746572616C878067208067A93B6080C3B500203567204E
S2240067A01667205160B5002027674C19644865616465722C079267B4005AA102F602204AD2
S2240067C0677A88D0F4B500204A67A506203567A50485064C99604E616D653E537472696E52
S2240067E0670BB767B400888888B90000291F00489838E3019500684C3B60576F72647305C3
S224006800E467A506F0174820C164A301203B6020E46720E2647A8888B9000080E74CAE64B1
S2240068205365617263682D576F72644C6973740F0268A97F0038F5028514B50418E51485E0
S22400684016E220B502EBA07F00B116C2208512B5008007C230A410B98100F04A38E9830020
S224006860A8B97F00451229DF5FD0EC8410E230A414C83017B1105116F0F729DFD0D5B110CF
S22400688029DF38E941C91A90E880C8C230A07F00B11009FF7F3003A901009502A5101869E3
S2240068A08300950480047404E8E8E8E8602701326820DD6AA506203B60203268200766F0F5
S2240068C00160207F6B436F6E7374616E7408B16820DD6A20B767208067A93B604C72675672
S2240068E061726961626C6508D06820FC68A900004C356743726561746506EA6820DD6A203B
S224006900B767A908694C5D67681A4C3B60446F65733E85FC68A92769205D67A9681A203572
S22400692067A93B604C5D67681AA406990100602E2282156920966AA502F009A94769205D8B
S224006940674C9A674CE264204D694CE264A303A8C8B90000C8C8CACA9400CACA9500187547
S224006960023A830360532282346920966AA502F009A99469205D674C9A67B50048D40420D0
S2240069801667205160B500202767201964201661201661607AB90100C8C8C8CACA9400CA98
S2240069A0CA95001875023A48604D7573744265436F6D70696C696E670F6A69A502D0032094
S2240069C07F6B6041626F72742286BB6920966A20BB69A9DC69205D67209A6760B500D00B5D
S2240069E0E8E87A98387901001A48607A5AC8B90000C8C89400CACA950020E2644C7F6B0BF3
S224006A001863017A4C3B604C617465737406CC69A9060080EA4261736504106AA9000080B1
S224006A20DE5374617465051C6AA9020080D13E496E03296AA90C0080C6536F7572636506EE
S224006A40346AA508A40A4CAC60446563696D616C07426AA90A0085006048657803536AA958
S224006A60100080F2436F756E74055F6AA10029FF00F6004C3B6028816C6AA9290020996A9E
S224006A804C99605C817A6AA50A850C60506172736505876A8006A92200203B60CACAE220B8
S224006AA0A40C5A88B502C8C40AB014D108F00AC920D0F3B108C920B0EBC8840C888002848C
S224006AC00CC2209838E30195006818650895026050617273652D4E616D650A946A20E66A75
S224006AE0A9200020996AE220A40C88C8C40AB006B108C92190F5840CC220604E756D62652E
S224006B007206DD6A640E641020626B3050C92B00F007C92D00D007C61020626B302D38E965
S224006B2030009039C90A00900BE9070029DF00C90A009029C500B0258512A400A9000018CF
S224006B40650E88D0FA6512850E80CEA50E2410100449FFFF1A9502A9FFFF9500607402E826
S224006B60E860D6003007A102F60229FF006042796503046B4C84E041626F727405746B205A
S224006B802F6020476905003F00200D0A800751756974047F6BA997041B6402A90003850800
S224006BA0A0FE0020AC6020FB64B500E8E8850A20C164640C20D36BA502D0E0204769050034
S224006BC0206F6B0D0A80D4496E7465727072657409956B20DD6AB500F06620A860A5062020
S224006BE03B60203268B500F01D300EA502F00AE8E820596720996080DAE8E8207E60207E0B
S224006C006020D66580CDE8E820A86020046BB500F016E8E8A502F00820926720996080B351
S224006C20207E60207E6080ABE8E820E2642047690B00206E6F7420666F756E6420207F6B40
S224006C404C99605B81D36B6402605D01476C8602603A014E6C20DD6A20B7674C4E6C3B81B5
S224006C60556C20E4654C476C44756D7004626CD60020AE64206160204B65A010005A20C1DA
S224006C8064A102F602D600205E657A88D0EFB50010DF4C99602E53026F6CA93C002097642F
S224006CA020E46020396020BD65A93E0020976420C164B500F00D203B6020F76020BD65D62D
S224006CC00010EFE8E84CAE64DBDBDBDBDBDBDBDBDBDBDBDBDBDBDBDBDBDBDBDBDBDBDBDBFA
S22400FFE0DBDBDBDBDBDBDBDBDBDBDBDBDBDBDBDBDBDBDBDBDBDBDBDBDBDBDBDB0060DBDBF2
S804000000FB