S22400600018FBC238A900045B4BABA26E00A9AD041B20A46A6402A9AE048504A94A6D850688
S2240060204C2C6C436F6C6404000080D45053502D5265736574092A60A26E0060447570034B
S2240060403860B500CACA95006044726F70044260E8E86053776170045060B500B4029400AC
S2240060609502604F766572045A60B50280D6526F74036A60B404B5029504B50095029400D3
S224006080604E6970037460B500E8E89500605475636B048760205A6080AA3244726F7005D1
S2240060A09560E8E880AAE8E880F83244757004A260B400B502CACACACA9502940060324FA4
S2240060C076657205B160B404B50680E9325377617005C660B500B40495049400B502B40679
S2240060E09506940260446570746805D4608624A96E0038E5244A4C44605069636B04ED60C8
S224006100B5000ADA6301AAB502FA9500603E52020061B500E8E87A485A60323E5203126101
S2240061207AB50248B500485A4CA260523E0220617A685A4C446032523E033061CACACACA7F
S2240061407A6895006895025A605240023C61A3034C44602B014E61B500E8E81875009500C1
S224006160602D015761B50238F5004C89604E6567617465066561B50049FFFF1A950060414F
S2240061806273037661B50030EF60444E656761746507856138A90000F5029502A90000F585
S2240061A00095006044416273049461B50030E5604D617803AB61B50038F50270163004B5E0
S2240061C0009502E8E8604D696E03B661B50038F50270EA30EA80EC312B02CC61F6006032DE
S2240061E02B02DC61F60080F4312D02E461D60060322A02ED61160060322F02F561B5000A51
S22400620076006055322F03FD615600604C5368696674060962B400F005160288D0FBE8E837
S22400622060525368696674061562B400F005560288D0FBE8E860533E44032A62B500290066
S22400624080F003A9FFFF4C4460554D2A033C62A9000018A01000760290031875006A88D0F7
S224006260F576029500604D2A024F62B500550208208561205A60208561204F622810034C3B
S2240062809461602A016B62204F62E8E860554D2F4D4F44068762B502B404940218A010003E
S2240062A036022AB004D5009003F5003888D0F136029504E8E860534D2F52656D06966220D3
S2240062C01261B5004820AB61A303204460208561209662A30343011003207661681008A978
S2240062E0000038F502950268602F4D4F4404BF62201261203C6220306180C42F01F06220EF
S224006300F0624C87604D6F6403FF6220F062E8E860303D020B63B500D00FA9FFFF950060C0
S224006320303C021663B50030F1740060303E022563B50030F4D0E380F03D013163B500D577
S22400634002F010E8E87400603C3E023D63B500D502F0F0E8E880C33C014D63B50238F50026
S224006360700F30EF80DD3E015B63B50238F50070F130D0D0DE80CC553C026A63B502D500F5
S22400638090D180BF553E027C63B500D50290C480B254727565048963A9FFFF4C4460466104
S2240063A06C7365059863A900004C4460416E6403A663B50035024C89604F7202B263B5002E
S2240063C015024C8960586F7203BE63B50055024C8960496E7665727406CB63B50049FFFF26
S2240063E09500604001DB63A1009500602101E763B50281004CA260434002F063E220A10021
S224006400C22029FF00950060432102FC63B502E2208100C2204CA2603240020D64B400B9F7
S22400642002009500B900004C44603221021D64B400B502990000B5049902004CA660434D07
S2240064406F7665052F64B500F00C3ADAB4045AB402FA540000FA4CA66046696C6C044664F9
S224006460B402F016B500E2208104C220983AF00A3ADAB404BBC8540000FA4CA6604B657959
S2240064800360642089644C4460080BA900005BE2242233E0002BB0052829FF00602880E9C0
S2240064A04B65793F04836420B264F003A9FFFF4C4460AD430029010060456D697404A764AC
S2240064C0B500E8E848DA08782263E000B00428FA686028FA80EF435202C064A90D0020C4A7
S2240064E064A90A0080DE537061636505DB64A9200080D153706163657306EE64D600300516
S22400650020EE6480F7E8E8605479706504FC648007A10220C464F602D60010F54CA2604183
S2240065206363657074060F65B502487402208964C90D00F038C90800F01CC97F00F017B46D
S224006540008426B402C426B0E4E2209301C220F60220C46480D7B402F0D3D602A908002027
S224006560C46420EE64A9080020C46480C0E8E868602E486578042865B501208B6580084336
S2240065802E486578057865B500E8E8484A4A4A4A20946568290F00C90A00900369060069D5
S2240065A030004CC464552E028765B500E8E820B4654CEE648524F40000A900000624A01045
S2240065C0002AC5009002E500262488D0F4C90A00900369060069300048A524D0DC800320EC
S2240065E0C46468D0FA602E01AA65B5001009207661A92D0020C46480B145786563757465B7
S22400660007EA65B500E8E83A486045786974840366A960004C62674966821166A928662014
S2240066207567202E674C8A67B500F0057AC8C8C85AE8E860B500E8E8A860456C7365841CCB
S22400664066202E67208A67205A6080075468656E844166B400E8E8A50499010060426567B9
S224006660696E8553664C2E67416761696E8565664C8667556E74696C857066A92866207583
S2240066806780ED5768696C65857B66A92866207567202E674C8A67526570656174868B66C5
S2240066A0B502208A67B400A5049901004CA260446F82A066A920612075674C2E674C6F6F5C
S2240066C07084B466A9CD662075674C8667A3031AC305F0038303607A6868C8C8C85A602BAE
S2240066E04C6F6F7085C466A9F0662075674C8667B500E8E88524186303830338E305C524DD
S2240067006A452410D260556E6C6F6F7086E766A968684C4D6749010F67A3034C44604A01F5
S2240067201967A3074C446048657265042267A5044C4460416C6C6F74052E67B500E8E8185D
S22400674065048504602C013B67B500E8E89204E604E604A90000920460432C024967B500AF
S224006760E8E8920480EB436F6D70696C652C085E67B500E8E848A920002062676880CE4A02
S2240067806D702C047167B500E8E848A94C0080E94C6461232C058667A9A90020626780A92E
S2240067A04C69746572616C879867209867A9446080C3B500204D67202E67205A60B50020E5
S2240067C03F674C46644865616465722C07AA67B4005AA102F6022062677A88D0F4B500205E
S2240067E06267A506204D67A50485064CA2604E616D653E537472696E670BCF67B40088888F
S22400680088B90000291F00489838E3019500684C4460576F72647305FC67A506F017482070
S224006820EE64A30120446020FC67200F657A8888B9000080E74CDB645365617263682D5773
S2240068406F72644C6973740F1A68A97F0038F502852AB50418E52A852CE220B502EBA07F67
S22400686000B12CC2208528B5008007C230A426B98100F04A38E98300A8B97F00452829DF42
S2240068805FD0EC8426E230A42AC83017B126512CF0F729DFD0D5B12629DF38E941C91A90A3
S2240068A0E880C8C230A07F00B12609FF7F3003A901009502A526186983009504800474045C
S2240068C0E8E8E8E86027014A6820746BA506204460204A68203466F0016020166C436F6ECC
S2240068E07374616E7408C96820746B20CF67209867A944604C8A675661726961626C650804
S224006900E868201469A900004C4D6743726561746506026920746B20CF67A920694C756768
S224006920681A4C4460446F65733E851469A93F69207567A9681A204D67A944604C756768EC
S2240069401AA406990100602E22822D69202D6BA502F009A95F692075674CB2674C0F652002
S22400696065694C0F65A303A8C8B90000C8C8CACA9400CACA95001875023A8303605322822E
S2240069804C69202D6BA502F009A9AC692075674CB267B50048D404202E67205A60B500208D
S2240069A03F67204664203061203061607AB90100C8C8C8CACA9400CACA95001875023A48B2
S2240069C0604D7573744265436F6D70696C696E670F8269A502D00320166C6041626F7274F2
S2240069E02286D369202D6B20D369A9F46920756720B26760B500D00BE8E87A9838790100DB
S224006A001A48607A5AC8B90000C8C89400CACA9500200F654C166C557365723005E4697B0F
S224006A204C44600B1863017A4C44604C6174657374061F6AA9060080EA4261736504346A3E
S224006A40A9000080DE537461746505406AA9020080D13E496E034D6AA90C0080C6486F6CB1
S224006A606450747207586AA90E0080B752616E64537461746509676AA9100080A654656D5B
S224006A80703005786AA926008099536F7572636506856AA508A40A4CB560446563696D611D
S224006AA06C07936AA90A0085006048657803A46AA9100080F2436F756E7405B06AA1002976
S224006AC0FF00F6004C4460436F6D7061726507BD6AB5028526B5068528B504D5009002B538
S224006AE000852AE220A0FFFFC8C42AB00AB128D126F0F52A0A800BC220B500D504D0F4A981
S224006B000100C2202903003A95064CA6602881D16AA9290020306B4CA2605C81116BA50A73
S224006B20850C605061727365051E6B8006A92200204460CACAE220A40C5A88B502C8C40A4C
S224006B40B014D108F00AC920D0F3B108C920B0EBC8840C888002840CC2209838E301950093
S224006B606818650895026050617273652D4E616D650A2B6B207D6BA9200020306BE220A4B1
S224006B800C88C8C40AB006B108C92190F5840CC220604E756D62657206746B642464262096
S224006BA0F96B3050C92B00F007C92D00D007C62620F96B302D38E930009039C90A00900BDF
S224006BC0E9070029DF00C90A009029C500B0258528A400A9000018652488D0FA652885246F
S224006BE080CEA5242426100449FFFF1A9502A9FFFF9500607402E8E860D6003007A102F63B
S224006C000229FF0060427965039B6B4C84E041626F7274050B6C203860205F6905003F00B4
S224006C20200D0A80075175697404166CA9AD041B6402A900038508A0FE0020B560202865D4
S224006C40B500E8E8850A20EE64640C206B6CA502D008205F690300206F6B20DB6480D349E3
S224006C606E74657270726574092C6C20746BB500F06620B160A506204460204A68B500F0D9
S224006C801D300EA502F00AE8E820716720A26080DAE8E820876020876020036680CDE8E82B
S224006CA020B160209B6BB500F016E8E8A502F00820AA6720A26080B320876020876080AB8F
S224006CC0E8E8200F65205F690B00206E6F7420666F756E642020166C4CA2605B816B6C6484
S224006CE002605D01DF6C860260436F646504E66C20056D4CDF6C3B436F646585F06C4C11AE
S224006D00663A01FE6C20746B20CF674CE66C3B81056D2011664CDF6C44756D7004126DD625
S224006D200020DB64206A60207865A010005A20EE64A102F602D600208B657A88D0EFB50095
S224006D4010DF4CA2602E53021F6DA93C0020C46420ED6020426020EA65A93E0020C46420C8
S224006D60EE64B500F00D20446020006120EA65D60010EFE8E84CDB64DBDBDBDBDBDBDBDB4E
S22400FFE0DBDBDBDBDBDBDBDBDBDBDBDBDBDBDBDBDBDBDBDBDBDBDBDBDBDBDBDB0060DBDBF2
S804000000FB