S22400600018FBC238A900045BA9AF041BA240004BAB20D16A6402A9B0048504A9746D85065B
S2240060204C596C436F6C6404000080D45053502D5265736574092A60A2400060447570034C
S2240060403860B530CACA95306044726F70244260E8E8606053776170045060B530B432946C
S224006060309532604F766572045B60B53280D5526F74036B60B434B5329534B53095329452
S22400608030604E6970037560B530E8E89530605475636B048860205B6080A93244726F7044
S2240060A0059660E8E880A9E8E880F83244757004A360B430B532CACACACA9532943060322D
S2240060C04F76657205B260B536B43480E9325377617005C760B530B43495349430B532B4DE
S2240060E0369536943260446570746805D5608624A9400038E5244A4C44605069636B04EEBE
S22400610060B5300ADA6301AAB532FA9530603E52020161B530E8E87A485A60323E52031340
S224006120617AB53248B530485A4CA360523E0221617A685A4C446032523E033161CACACA85
S224006140CA7A6895306895325A605240023D61A3034C44602B014F6118B53275304C8A6062
S2240061602D01586138B532F5304C8A604E6567617465066461B53049FFFF1A95306041628C
S22400618073037561B53030EF60444E656761746507846138A90000F5329532A90000F53029
S2240061A095306044416273049361B53030E5604D617803AA61B53038F53270163004B530F2
S2240061C09532E8E8604D696E03B561B53038F53270EA30EA80EC312B22CB61F630606032A0
S2240061E02B02DB61F63080F3312D22E461D6306060322A22ED6116306060322F02F661B5CC
S224006200300A76306055322F23FF61563060604C5368696674060B62B430F005163288D084
S224006220FBE8E860525368696674061862B430F005563288D0FBE8E860533E44032D62B55E
S22400624030290080F003A9FFFF4C4460554D2A033F62A90000A01000763290031875306AAB
S22400626088D0F576329530604D2A025262B530553208208461205B6020846120526228106D
S224006280034C9361602A016D62205262E8E860554E2F4D6F64068962A9000016343632A07A
S2240062A020002AB004D5309003F530383634363288D0EF953060554D2F4D6F640698622097
S2240062C098622088604C5B60534D2F52656D06BF62201361B5304820AA61A3032044602020
S2240062E0846120BF62A30343011003207561681008A9000038F532953268602F4D6F640416
S224006300D162201361203F6220316180C42F0102632002634C88604D6F6403116320026390
S224006320E8E860303D021D63B530D00FA9FFFF953060303C022863B53030F1743060303E38
S224006340023763B53030F4D0E380F03D014363B530D532F010E8E87430603C3E024F63B5E9
S22400636030D532F0F0E8E880C33C015F6338B532F530700F30EF80DD3E016D6338B532F58D
S2240063803070F130D0D0DE80CC553C027C63B532D53090D180BF553E028E63B530D532906D
S2240063A0C480B254727565049B63A9FFFF4C446046616C736505AA63A900004C4460416E64
S2240063C06403B863B53235304C8A604F7202C463B53215304C8A60586F7203D063B53255BD
S2240063E0304C8A60496E7665727406DD63B53049FFFF9530604021ED63A1309530606021FB
S22400640001F963B53281304CA3604340020364E220A130C22029FF009530604321020F646C
S224006420B532E2208130C2204CA3603240022064B430B902009530B900004C446032210232
S2240064403064B430B532990000B5349902004CA760434D6F7665054264B530F00C3ADAB43A
S224006460345AB432FA540000FA4CA76046696C6C045964B432F016B530E2208134C22098BE
S2240064803AF00A3ADAB434BBC8540000FA4CA7604B6579037364209C644C4460080BA900D4
S2240064A0005BE2242233E0002BB0052829FF00602880E94B65793F04966420C564F003A9D5
S2240064C0FFFF4C4460AD430029010060456D697404BA64B530E8E848DA08782263E000B032
S2240064E00428FA686028FA80EF435202D364A90D0020D764A90A0080DE537061636505EE49
S22400650064A9200080D15370616365730601658003200165D63010F9E8E86054797065043F
S2240065200F658007A13220D764F632D63010F54CA360416363657074062265B532487432F9
S224006540209C64C90D00F038C90800F01CC97F00F017B4308426B432C426B0E4E220930164
S224006560C220F63220D76480D7B432F0D3D632A9080020D764200165A9080020D76480C0CB
S224006580E8E868602E486578043B65B531209E658008432E486578058B65B530E8E8484A04
S2240065A04A4A4A20A76568290F00C90A0090036906006930004CD764552E029A65B530E8E6
S2240065C0E820C7654C01658524F40000A900000624A010002AC5009002E500262488D0F4B4
S2240065E0C90A00900369060069300048A524D0DC800320D76468D0FA602E01BD65B53010B5
S22400660009207561A92D0020D76480B14578656375746507FD65B530E8E83A48604578691B
S22400662074841666A960004C74674966822466A93B662087672040674C9C67E8E8B52EF0E5
S224006640057AC8C8C85A60E8E8B52E60456C7365842F66204067209C67205B6080075468E7
S224006660656E845366B430E8E8A50499010060426567696E8565664C4067416761696E8521
S22400668077664C9867556E74696C858266A93B6620876780ED5768696C65858D66A93B66D4
S2240066A02087672040674C9C67526570656174869D66B532209C67B430A5049901004CA3A7
S2240066C060446F82B266A921612087674C40674C6F6F7084C666A9DF662087674C9867A3A8
S2240066E0031AC305F0038303607A6868C8C8C85A602B4C6F6F7085D666A902672087674C89
S2240067009867B530E8E88524186303830338E305C5246A452410D260556E6C6F6F7086F9F9
S22400672066A968684C5F6749012167A3034C44604A012B67A3074C44604865726504346761
S224006740A5044C4460416C6C6F74054067B530E8E81865048504602C014D67B530E8E892AC
S22400676004E604E604A90000920460432C025B67B530E8E8920480EB436F6D70696C652CBF
S224006780087067B530E8E848A920002074676880CE4A6D702C048367B530E8E848A94C006B
S2240067A080E94C64232C049867A9A90020746780AA4C69746572616C87A96720A967A94471
S2240067C06080C4B530205F67204067205B60B5302051674C59644865616465722C07BB673F
S2240067E0B4305AA132F6322074677A88D0F4B530207467A506205F67A50485064CA360495D
S2240068006D6D65646961746589E067A98000A406888888190000990000604E616D653E53CE
S2240068207472696E670B0B68B430888888B90000291F00489838E3019530684C4460576F55
S224006840726473052868A506F015482044602028682001652022657A8888B9000080E94CC4
S224006860EE645365617263682D576F72644C6973740F4668A97F0038F532852AB53418E52D
S2240068802A852CE220B532EBA07F00B12CC2208528B5308007C230A426B98100F04A38E9FC
S2240068A08300A8B97F00452829DF5FD0EC8426E230A42AC83017B126512CF0F729DFD0D55F
S2240068C0B12629DF38E941C91A90E880C8C230A07F00B12609FF7F3003A901009532A526F1
S2240068E018698300953480047434E8E8E8E8602701746820A16BA506204460207468204798
S22400690066F0016020436C436F6E7374616E7408F36820A16B20E06720A967A944604C9C47
S224006920675661726961626C65081269203E69A900004C5F67437265617465062C6920A110
S2240069406B20E067A94A694C8767681A4C4460446F65733E853E69A96969208767A9681AAF
S224006960205F67A944604C8767681AA406990100602E22825769205A6BA502F009A98969CD
S2240069802087674CC3674C2265208F694C2265A303A8C8B90000C8C8CACA9430CACA9530A0
S2240069A01875323A8303605322827669205A6BA502F009A9D6692087674CC367B53048D42B
S2240069C004204067205B60B530205167205964203161203161607AB90100C8C8C8CACA94FA
S2240069E030CACA95301875323A48604D7573744265436F6D70696C696E670FAC69A502D0DB
S224006A000320436C6041626F72742286FD69205A6B20FD69A91E6A20876720C36760B53000
S224006A20D00BE8E87A98387901001A48607A5AC8B90000C8C89430CACA95302022654C43E8
S224006A406C5573657230050E6A7B4C44600B1863017A4C44604C617465737406496AA90648
S224006A600080EA42617365045E6AA9000080DE5374617465056A6AA9020080D13E496E038B
S224006A80776AA90C0080C6486F6C6450747207826AA90E0080B7A9080052616E6453746119
S224006AA0746509916AA9100080A354656D703005A56AA926008096536F7572636506B26AC6
S224006AC0A508A40A4CB660446563696D616C07C06AA90A0085006048657803D16AA9100060
S224006AE080F2436F756E7405DD6AA13029FF00F6304C4460436F6D7061726507EA6AB532B2
S224006B008526B5368528B534D5309002B530852AE220A0FFFFC8C42AB00AB128D126F0F554
S224006B202A0A800BC220B530D534D0F4A90100C2202903003A95364CA7602881FE6AA9290A
S224006B4000205D6B4CA3605C813E6BA50A850C605061727365054B6B8006A9220020446008
S224006B60CACAE220A40C5A88B532C8C40AB014D108F00AC920D0F3B108C920B0EBC8840C93
S224006B80888002840CC2209838E30195306818650895326050617273652D4E616D650A58DC
S224006BA06B20AA6BA92000205D6BE220A40C88C8C40AB006B108C92190F5840CC220604EB1
S224006BC0756D62657206A16B6424642620266C3050C92B00F007C92D00D007C62620266CE9
S224006BE0302D38E930009039C90A00900BE9070029DF00C90A009029C500B0258528A4003C
S224006C00A9000018652488D0FA6528852480CEA5242426100449FFFF1A9532A9FFFF953094
S224006C20607432E8E860D6303007A132F63229FF006042796503C86B4C84E041626F72745B
S224006C4005386C20386020896905003F00200D0A80075175697404436CA9AF041B6402A9DE
S224006C6000038508A0FE0020B660203B65B530E8E8850A200165640C20986CA502D00820EE
S224006C8089690300206F6B20EE6480D3496E7465727072657409596C20A16BB530F0662029
S224006CA0B260A506204460207468B530F01D300EA502F00AE8E820836720A36080DAE8E85A
S224006CC020886020886020166680CDE8E820B26020C86BB530F016E8E8A502F00820BB67C5
S224006CE020A36080B320886020886080ABE8E82022652089690B00206E6F7420666F756E21
S224006D00642020436C4CA3605B81986C6402605D010C6D860260436F646504136D20316DAA
S224006D2080EA3B436F6465851D6D4C24663A012A6D20A16B20E06780DA3B81316D20246686
S224006D4080CA44756D70043D6DD63020EE64206B60208B65A010005A200165A132F632D6CC
S224006D6030209E657A88D0EFB53010DF4CA3602E5302496DA93C0020D76420EE602042602E
S224006D8020FD65A93E0020D764200165B530F00D20446020016120FD65D63010EFE8E84CD9
S224006DA0EE64DBDBDBDBDBDBDBDBDBDBDBDBDBDBDBDBDBDBDBDBDBDBDBDBDBDBDBDBDBDBD2
S22400FFE0DBDBDBDBDBDBDBDBDBDBDBDBDBDBDBDBDBDBDBDBDBDBDBDBDBDBDBDB0060DBDBF2
S804000000FB